{
  "contractName": "Marketplace",
  "abi": [
    {
      "inputs": [],
      "name": "productcount",
      "outputs": [
        {
          "internalType": "uint256",
          "name": "",
          "type": "uint256"
        }
      ],
      "stateMutability": "view",
      "type": "function"
    },
    {
      "inputs": [
        {
          "internalType": "uint256",
          "name": "",
          "type": "uint256"
        }
      ],
      "name": "products",
      "outputs": [
        {
          "internalType": "uint256",
          "name": "Id",
          "type": "uint256"
        },
        {
          "internalType": "string",
          "name": "name",
          "type": "string"
        },
        {
          "internalType": "string",
          "name": "sellername",
          "type": "string"
        },
        {
          "internalType": "uint256",
          "name": "quantity",
          "type": "uint256"
        },
        {
          "internalType": "uint256",
          "name": "price",
          "type": "uint256"
        },
        {
          "internalType": "address payable",
          "name": "owner",
          "type": "address"
        },
        {
          "internalType": "string",
          "name": "hash",
          "type": "string"
        }
      ],
      "stateMutability": "view",
      "type": "function"
    },
    {
      "inputs": [],
      "name": "receiptcount",
      "outputs": [
        {
          "internalType": "uint256",
          "name": "",
          "type": "uint256"
        }
      ],
      "stateMutability": "view",
      "type": "function"
    },
    {
      "inputs": [
        {
          "internalType": "uint256",
          "name": "",
          "type": "uint256"
        }
      ],
      "name": "receipts",
      "outputs": [
        {
          "internalType": "uint256",
          "name": "idx",
          "type": "uint256"
        },
        {
          "internalType": "string",
          "name": "sellername",
          "type": "string"
        },
        {
          "internalType": "address payable",
          "name": "owner",
          "type": "address"
        },
        {
          "internalType": "uint256",
          "name": "quantity",
          "type": "uint256"
        },
        {
          "internalType": "string",
          "name": "hash",
          "type": "string"
        }
      ],
      "stateMutability": "view",
      "type": "function"
    },
    {
      "inputs": [
        {
          "internalType": "uint256",
          "name": "",
          "type": "uint256"
        }
      ],
      "name": "user",
      "outputs": [
        {
          "internalType": "uint256",
          "name": "id",
          "type": "uint256"
        },
        {
          "internalType": "string",
          "name": "name",
          "type": "string"
        },
        {
          "internalType": "string",
          "name": "email",
          "type": "string"
        },
        {
          "internalType": "string",
          "name": "hash",
          "type": "string"
        },
        {
          "internalType": "string",
          "name": "location",
          "type": "string"
        },
        {
          "internalType": "bool",
          "name": "artist",
          "type": "bool"
        }
      ],
      "stateMutability": "view",
      "type": "function"
    },
    {
      "inputs": [],
      "name": "usercount",
      "outputs": [
        {
          "internalType": "uint256",
          "name": "",
          "type": "uint256"
        }
      ],
      "stateMutability": "view",
      "type": "function"
    },
    {
      "inputs": [
        {
          "internalType": "string",
          "name": "_name",
          "type": "string"
        },
        {
          "internalType": "string",
          "name": "_email",
          "type": "string"
        },
        {
          "internalType": "string",
          "name": "_hash",
          "type": "string"
        },
        {
          "internalType": "bool",
          "name": "_artist",
          "type": "bool"
        },
        {
          "internalType": "string",
          "name": "_location",
          "type": "string"
        }
      ],
      "name": "createUser",
      "outputs": [],
      "stateMutability": "nonpayable",
      "type": "function"
    },
    {
      "inputs": [
        {
          "internalType": "string",
          "name": "_name",
          "type": "string"
        },
        {
          "internalType": "string",
          "name": "_sellername",
          "type": "string"
        },
        {
          "internalType": "uint256",
          "name": "_quantity",
          "type": "uint256"
        },
        {
          "internalType": "uint256",
          "name": "_price",
          "type": "uint256"
        },
        {
          "internalType": "string",
          "name": "_hash",
          "type": "string"
        }
      ],
      "name": "createProduct",
      "outputs": [],
      "stateMutability": "nonpayable",
      "type": "function"
    },
    {
      "inputs": [
        {
          "internalType": "uint256",
          "name": "_id",
          "type": "uint256"
        },
        {
          "internalType": "uint256",
          "name": "_quantity",
          "type": "uint256"
        }
      ],
      "name": "buy",
      "outputs": [],
      "stateMutability": "payable",
      "type": "function"
    }
  ],
  "bytecode": "0x6080604052600080556000600155600060025534801561001e57600080fd5b506116d98061002e6000396000f3fe6080604052600436106100865760003560e01c8063553275be11610059578063553275be1461014d5780637853c35c1461018f5780637acc0b20146101b8578063ccfcaea4146101fb578063d6febde81461022457610086565b80630efe9da71461008b5780630f322c1e146100b65780630f7ee1ec146100e15780632ef6ac6614610122575b600080fd5b34801561009757600080fd5b506100a0610240565b6040516100ad9190611255565b60405180910390f35b3480156100c257600080fd5b506100cb610246565b6040516100d89190611255565b60405180910390f35b3480156100ed57600080fd5b5061010860048036038101906101039190611147565b61024c565b604051610119959493929190611270565b60405180910390f35b34801561012e57600080fd5b506101376103b2565b6040516101449190611255565b60405180910390f35b34801561015957600080fd5b50610174600480360381019061016f9190611147565b6103b8565b604051610186969594939291906112d1565b60405180910390f35b34801561019b57600080fd5b506101b660048036038101906101b19190610fb1565b610621565b005b3480156101c457600080fd5b506101df60048036038101906101da9190611147565b610727565b6040516101f2979695949392919061134e565b60405180910390f35b34801561020757600080fd5b50610222600480360381019061021d9190611088565b610921565b005b61023e60048036038101906102399190611170565b610a5d565b005b60025481565b60015481565b600560205280600052604060002060009150905080600001549080600101805461027590611502565b80601f01602080910402602001604051908101604052809291908181526020018280546102a190611502565b80156102ee5780601f106102c3576101008083540402835291602001916102ee565b820191906000526020600020905b8154815290600101906020018083116102d157829003601f168201915b5050505050908060020160009054906101000a900473ffffffffffffffffffffffffffffffffffffffff169080600301549080600401805461032f90611502565b80601f016020809104026020016040519081016040528092919081815260200182805461035b90611502565b80156103a85780601f1061037d576101008083540402835291602001916103a8565b820191906000526020600020905b81548152906001019060200180831161038b57829003601f168201915b5050505050905085565b60005481565b60046020528060005260406000206000915090508060000154908060010180546103e190611502565b80601f016020809104026020016040519081016040528092919081815260200182805461040d90611502565b801561045a5780601f1061042f5761010080835404028352916020019161045a565b820191906000526020600020905b81548152906001019060200180831161043d57829003601f168201915b50505050509080600201805461046f90611502565b80601f016020809104026020016040519081016040528092919081815260200182805461049b90611502565b80156104e85780601f106104bd576101008083540402835291602001916104e8565b820191906000526020600020905b8154815290600101906020018083116104cb57829003601f168201915b5050505050908060030180546104fd90611502565b80601f016020809104026020016040519081016040528092919081815260200182805461052990611502565b80156105765780601f1061054b57610100808354040283529160200191610576565b820191906000526020600020905b81548152906001019060200180831161055957829003601f168201915b50505050509080600401805461058b90611502565b80601f01602080910402602001604051908101604052809291908181526020018280546105b790611502565b80156106045780601f106105d957610100808354040283529160200191610604565b820191906000526020600020905b8154815290600101906020018083116105e757829003601f168201915b5050505050908060050160009054906101000a900460ff16905086565b6001600081548092919061063490611565565b91905055506040518060c0016040528060015481526020018681526020018581526020018481526020018281526020018315158152506004600060015481526020019081526020016000206000820151816000015560208201518160010190805190602001906106a5929190610e7c565b5060408201518160020190805190602001906106c2929190610e7c565b5060608201518160030190805190602001906106df929190610e7c565b5060808201518160040190805190602001906106fc929190610e7c565b5060a08201518160050160006101000a81548160ff0219169083151502179055509050505050505050565b600360205280600052604060002060009150905080600001549080600101805461075090611502565b80601f016020809104026020016040519081016040528092919081815260200182805461077c90611502565b80156107c95780601f1061079e576101008083540402835291602001916107c9565b820191906000526020600020905b8154815290600101906020018083116107ac57829003601f168201915b5050505050908060020180546107de90611502565b80601f016020809104026020016040519081016040528092919081815260200182805461080a90611502565b80156108575780601f1061082c57610100808354040283529160200191610857565b820191906000526020600020905b81548152906001019060200180831161083a57829003601f168201915b5050505050908060030154908060040154908060050160009054906101000a900473ffffffffffffffffffffffffffffffffffffffff169080600601805461089e90611502565b80601f01602080910402602001604051908101604052809291908181526020018280546108ca90611502565b80156109175780601f106108ec57610100808354040283529160200191610917565b820191906000526020600020905b8154815290600101906020018083116108fa57829003601f168201915b5050505050905087565b60008081548092919061093390611565565b91905055506040518060e0016040528060005481526020018681526020018581526020018481526020018381526020013373ffffffffffffffffffffffffffffffffffffffff1681526020018281525060036000805481526020019081526020016000206000820151816000015560208201518160010190805190602001906109bd929190610e7c565b5060408201518160020190805190602001906109da929190610e7c565b50606082015181600301556080820151816004015560a08201518160050160006101000a81548173ffffffffffffffffffffffffffffffffffffffff021916908373ffffffffffffffffffffffffffffffffffffffff16021790555060c0820151816006019080519060200190610a52929190610e7c565b509050505050505050565b6000600360008481526020019081526020016000206040518060e001604052908160008201548152602001600182018054610a9790611502565b80601f0160208091040260200160405190810160405280929190818152602001828054610ac390611502565b8015610b105780601f10610ae557610100808354040283529160200191610b10565b820191906000526020600020905b815481529060010190602001808311610af357829003601f168201915b50505050508152602001600282018054610b2990611502565b80601f0160208091040260200160405190810160405280929190818152602001828054610b5590611502565b8015610ba25780601f10610b7757610100808354040283529160200191610ba2565b820191906000526020600020905b815481529060010190602001808311610b8557829003601f168201915b5050505050815260200160038201548152602001600482015481526020016005820160009054906101000a900473ffffffffffffffffffffffffffffffffffffffff1673ffffffffffffffffffffffffffffffffffffffff1673ffffffffffffffffffffffffffffffffffffffff168152602001600682018054610c2590611502565b80601f0160208091040260200160405190810160405280929190818152602001828054610c5190611502565b8015610c9e5780601f10610c7357610100808354040283529160200191610c9e565b820191906000526020600020905b815481529060010190602001808311610c8157829003601f168201915b505050505081525050905081816060015111610cef576040517f08c379a0000000000000000000000000000000000000000000000000000000008152600401610ce690611235565b60405180910390fd5b60008160a001519050600082606001511115610e76578073ffffffffffffffffffffffffffffffffffffffff166108fc83608001519081150290604051600060405180830381858888f19350505050158015610d4f573d6000803e3d6000fd5b50828260600151610d609190611444565b82606001818152505060026000815480929190610d7c90611565565b91905055506040518060a001604052806002548152602001836040015181526020013373ffffffffffffffffffffffffffffffffffffffff1681526020018481526020018360c00151815250600560006002548152602001908152602001600020600082015181600001556020820151816001019080519060200190610e03929190610e7c565b5060408201518160020160006101000a81548173ffffffffffffffffffffffffffffffffffffffff021916908373ffffffffffffffffffffffffffffffffffffffff160217905550606082015181600301556080820151816004019080519060200190610e71929190610e7c565b509050505b50505050565b828054610e8890611502565b90600052602060002090601f016020900481019282610eaa5760008555610ef1565b82601f10610ec357805160ff1916838001178555610ef1565b82800160010185558215610ef1579182015b82811115610ef0578251825591602001919060010190610ed5565b5b509050610efe9190610f02565b5090565b5b80821115610f1b576000816000905550600101610f03565b5090565b6000610f32610f2d846113f7565b6113d2565b905082815260208101848484011115610f4a57600080fd5b610f558482856114c0565b509392505050565b600081359050610f6c81611675565b92915050565b600082601f830112610f8357600080fd5b8135610f93848260208601610f1f565b91505092915050565b600081359050610fab8161168c565b92915050565b600080600080600060a08688031215610fc957600080fd5b600086013567ffffffffffffffff811115610fe357600080fd5b610fef88828901610f72565b955050602086013567ffffffffffffffff81111561100c57600080fd5b61101888828901610f72565b945050604086013567ffffffffffffffff81111561103557600080fd5b61104188828901610f72565b935050606061105288828901610f5d565b925050608086013567ffffffffffffffff81111561106f57600080fd5b61107b88828901610f72565b9150509295509295909350565b600080600080600060a086880312156110a057600080fd5b600086013567ffffffffffffffff8111156110ba57600080fd5b6110c688828901610f72565b955050602086013567ffffffffffffffff8111156110e357600080fd5b6110ef88828901610f72565b945050604061110088828901610f9c565b935050606061111188828901610f9c565b925050608086013567ffffffffffffffff81111561112e57600080fd5b61113a88828901610f72565b9150509295509295909350565b60006020828403121561115957600080fd5b600061116784828501610f9c565b91505092915050565b6000806040838503121561118357600080fd5b600061119185828601610f9c565b92505060206111a285828601610f9c565b9150509250929050565b6111b581611478565b82525050565b6111c48161148a565b82525050565b60006111d582611428565b6111df8185611433565b93506111ef8185602086016114cf565b6111f88161163b565b840191505092915050565b6000611210601b83611433565b915061121b8261164c565b602082019050919050565b61122f816114b6565b82525050565b6000602082019050818103600083015261124e81611203565b9050919050565b600060208201905061126a6000830184611226565b92915050565b600060a0820190506112856000830188611226565b818103602083015261129781876111ca565b90506112a660408301866111ac565b6112b36060830185611226565b81810360808301526112c581846111ca565b90509695505050505050565b600060c0820190506112e66000830189611226565b81810360208301526112f881886111ca565b9050818103604083015261130c81876111ca565b9050818103606083015261132081866111ca565b9050818103608083015261133481856111ca565b905061134360a08301846111bb565b979650505050505050565b600060e082019050611363600083018a611226565b818103602083015261137581896111ca565b9050818103604083015261138981886111ca565b90506113986060830187611226565b6113a56080830186611226565b6113b260a08301856111ac565b81810360c08301526113c481846111ca565b905098975050505050505050565b60006113dc6113ed565b90506113e88282611534565b919050565b6000604051905090565b600067ffffffffffffffff8211156114125761141161160c565b5b61141b8261163b565b9050602081019050919050565b600081519050919050565b600082825260208201905092915050565b600061144f826114b6565b915061145a836114b6565b92508282101561146d5761146c6115ae565b5b828203905092915050565b600061148382611496565b9050919050565b60008115159050919050565b600073ffffffffffffffffffffffffffffffffffffffff82169050919050565b6000819050919050565b82818337600083830152505050565b60005b838110156114ed5780820151818401526020810190506114d2565b838111156114fc576000848401525b50505050565b6000600282049050600182168061151a57607f821691505b6020821081141561152e5761152d6115dd565b5b50919050565b61153d8261163b565b810181811067ffffffffffffffff8211171561155c5761155b61160c565b5b80604052505050565b6000611570826114b6565b91507fffffffffffffffffffffffffffffffffffffffffffffffffffffffffffffffff8214156115a3576115a26115ae565b5b600182019050919050565b7f4e487b7100000000000000000000000000000000000000000000000000000000600052601160045260246000fd5b7f4e487b7100000000000000000000000000000000000000000000000000000000600052602260045260246000fd5b7f4e487b7100000000000000000000000000000000000000000000000000000000600052604160045260246000fd5b6000601f19601f8301169050919050565b7f506c656173652053656c656374206c657373207175616e746974790000000000600082015250565b61167e8161148a565b811461168957600080fd5b50565b611695816114b6565b81146116a057600080fd5b5056fea26469706673582212204df6fb38ae6c7b9329a0fea935e71b1f2bf40e547a08b6d545a1adb7cce2cfd564736f6c63430008040033",
  "immutableReferences": {},
  "source": "pragma solidity ^0.8.4;\n\ncontract Marketplace {  \n    uint public productcount = 0;\n    uint public usercount = 0;\n    uint public receiptcount = 0;\n    mapping(uint => Product) public products;\n    mapping(uint => User)public user;\n    mapping(uint => Receipt)public receipts;\n\n    struct User {\n        uint id;\n        string name;\n        string email;\n        string hash;\n        string location;\n        bool artist;\n    }\n\n    struct Product{\n        uint Id;\n        string name;\n        string sellername;\n        uint quantity;\n        uint price;\n        address payable owner;\n        string hash;\n    }\n\n    struct Receipt{\n        uint idx;\n        string sellername;\n        address payable owner;\n        uint quantity;\n        string hash;\n    }\n\n    function createUser(string memory _name , string memory _email , string memory _hash , bool _artist,string memory _location) public{\n        usercount++;\n        user[usercount] = User(usercount,_name,_email,_hash , _location  ,_artist);\n    }\n    function createProduct(string memory _name , string memory _sellername , uint _quantity,uint _price,string memory _hash) public{\n        productcount++;\n        products[productcount] = Product(productcount,_name,_sellername,_quantity,_price,payable(msg.sender),_hash);\n    }\n\n    function buy(uint _id, uint _quantity) payable public {\n       \n        Product memory _product = products[_id];\n        require(_product.quantity > _quantity , \"Please Select less quantity\");\n        address payable _owner = _product.owner;\n        if ( _product.quantity > 0){\n            _owner.transfer(_product.price);\n            _product.quantity = _product.quantity - _quantity;\n            receiptcount++;\n            receipts[receiptcount] = Receipt(receiptcount, _product.sellername,payable(msg.sender),_quantity,_product.hash);\n\n        }\n    }\n\n\n\n\n    // function buy(address payable seller , uint price , bool favourite) payable public {\n    //     if (favourite){\n    //         seller.transfer( (90*price)%100  );\n    //     }else{\n    //         seller.transfer(price);\n    //     }\n    // }\n\n\n\n    \n}",
  "sourcePath": "/Users/preritrawtani/Desktop/blockchain/starter_kit/src/contracts/Marketplace.sol",
  "compiler": {
    "name": "solc",
    "version": "0.8.4+commit.c7e474f2.Emscripten.clang"
  },
  "schemaVersion": "3.4.0",
  "updatedAt": "2022-01-21T13:27:17.522Z",
  "devdoc": {
    "kind": "dev",
    "methods": {},
    "version": 1
  },
  "userdoc": {
    "kind": "user",
    "methods": {},
    "version": 1
  }
}