{
  "contractName": "Marketplace",
  "abi": [
    {
      "inputs": [],
      "name": "productcount",
      "outputs": [
        {
          "internalType": "uint256",
          "name": "",
          "type": "uint256"
        }
      ],
      "stateMutability": "view",
      "type": "function",
      "constant": true
    },
    {
      "inputs": [
        {
          "internalType": "uint256",
          "name": "",
          "type": "uint256"
        }
      ],
      "name": "products",
      "outputs": [
        {
          "internalType": "uint256",
          "name": "Id",
          "type": "uint256"
        },
        {
          "internalType": "string",
          "name": "name",
          "type": "string"
        },
        {
          "internalType": "string",
          "name": "sellername",
          "type": "string"
        },
        {
          "internalType": "uint256",
          "name": "quantity",
          "type": "uint256"
        },
        {
          "internalType": "uint256",
          "name": "price",
          "type": "uint256"
        },
        {
          "internalType": "address payable",
          "name": "owner",
          "type": "address"
        },
        {
          "internalType": "string",
          "name": "hash",
          "type": "string"
        }
      ],
      "stateMutability": "view",
      "type": "function",
      "constant": true
    },
    {
      "inputs": [],
      "name": "receiptcount",
      "outputs": [
        {
          "internalType": "uint256",
          "name": "",
          "type": "uint256"
        }
      ],
      "stateMutability": "view",
      "type": "function",
      "constant": true
    },
    {
      "inputs": [
        {
          "internalType": "uint256",
          "name": "",
          "type": "uint256"
        }
      ],
      "name": "receipts",
      "outputs": [
        {
          "internalType": "uint256",
          "name": "idx",
          "type": "uint256"
        },
        {
          "internalType": "string",
          "name": "sellername",
          "type": "string"
        },
        {
          "internalType": "address payable",
          "name": "owner",
          "type": "address"
        },
        {
          "internalType": "uint256",
          "name": "quantity",
          "type": "uint256"
        },
        {
          "internalType": "string",
          "name": "hash",
          "type": "string"
        }
      ],
      "stateMutability": "view",
      "type": "function",
      "constant": true
    },
    {
      "inputs": [
        {
          "internalType": "uint256",
          "name": "",
          "type": "uint256"
        }
      ],
      "name": "user",
      "outputs": [
        {
          "internalType": "uint256",
          "name": "id",
          "type": "uint256"
        },
        {
          "internalType": "string",
          "name": "name",
          "type": "string"
        },
        {
          "internalType": "string",
          "name": "email",
          "type": "string"
        },
        {
          "internalType": "string",
          "name": "hash",
          "type": "string"
        },
        {
          "internalType": "bool",
          "name": "artist",
          "type": "bool"
        }
      ],
      "stateMutability": "view",
      "type": "function",
      "constant": true
    },
    {
      "inputs": [],
      "name": "usercount",
      "outputs": [
        {
          "internalType": "uint256",
          "name": "",
          "type": "uint256"
        }
      ],
      "stateMutability": "view",
      "type": "function",
      "constant": true
    },
    {
      "inputs": [
        {
          "internalType": "string",
          "name": "_name",
          "type": "string"
        },
        {
          "internalType": "string",
          "name": "_email",
          "type": "string"
        },
        {
          "internalType": "string",
          "name": "_hash",
          "type": "string"
        },
        {
          "internalType": "bool",
          "name": "_artist",
          "type": "bool"
        }
      ],
      "name": "createUser",
      "outputs": [],
      "stateMutability": "nonpayable",
      "type": "function"
    },
    {
      "inputs": [
        {
          "internalType": "string",
          "name": "_name",
          "type": "string"
        },
        {
          "internalType": "string",
          "name": "_sellername",
          "type": "string"
        },
        {
          "internalType": "uint256",
          "name": "_quantity",
          "type": "uint256"
        },
        {
          "internalType": "uint256",
          "name": "_price",
          "type": "uint256"
        },
        {
          "internalType": "string",
          "name": "_hash",
          "type": "string"
        }
      ],
      "name": "createProduct",
      "outputs": [],
      "stateMutability": "nonpayable",
      "type": "function"
    },
    {
      "inputs": [
        {
          "internalType": "uint256",
          "name": "_id",
          "type": "uint256"
        },
        {
          "internalType": "uint256",
          "name": "_quantity",
          "type": "uint256"
        }
      ],
      "name": "buy",
      "outputs": [],
      "stateMutability": "payable",
      "type": "function",
      "payable": true
    }
  ],
  "bytecode": "0x6080604052600080556000600155600060025534801561001e57600080fd5b506115e58061002e6000396000f3fe6080604052600436106100865760003560e01c8063553275be11610059578063553275be1461014d5780637acc0b201461018e578063ccfcaea4146101d1578063d6febde8146101fa578063e4f3ad951461021657610086565b80630efe9da71461008b5780630f322c1e146100b65780630f7ee1ec146100e15780632ef6ac6614610122575b600080fd5b34801561009757600080fd5b506100a061023f565b6040516100ad9190611176565b60405180910390f35b3480156100c257600080fd5b506100cb610245565b6040516100d89190611176565b60405180910390f35b3480156100ed57600080fd5b5061010860048036038101906101039190611068565b61024b565b604051610119959493929190611191565b60405180910390f35b34801561012e57600080fd5b506101376103b1565b6040516101449190611176565b60405180910390f35b34801561015957600080fd5b50610174600480360381019061016f9190611068565b6103b7565b6040516101859594939291906111f2565b60405180910390f35b34801561019a57600080fd5b506101b560048036038101906101b09190611068565b610592565b6040516101c8979695949392919061125a565b60405180910390f35b3480156101dd57600080fd5b506101f860048036038101906101f39190610fa9565b61078c565b005b610214600480360381019061020f9190611091565b6108c8565b005b34801561022257600080fd5b5061023d60048036038101906102389190610efe565b610ce7565b005b60025481565b60015481565b60056020528060005260406000206000915090508060000154908060010180546102749061140e565b80601f01602080910402602001604051908101604052809291908181526020018280546102a09061140e565b80156102ed5780601f106102c2576101008083540402835291602001916102ed565b820191906000526020600020905b8154815290600101906020018083116102d057829003601f168201915b5050505050908060020160009054906101000a900473ffffffffffffffffffffffffffffffffffffffff169080600301549080600401805461032e9061140e565b80601f016020809104026020016040519081016040528092919081815260200182805461035a9061140e565b80156103a75780601f1061037c576101008083540402835291602001916103a7565b820191906000526020600020905b81548152906001019060200180831161038a57829003601f168201915b5050505050905085565b60005481565b60046020528060005260406000206000915090508060000154908060010180546103e09061140e565b80601f016020809104026020016040519081016040528092919081815260200182805461040c9061140e565b80156104595780601f1061042e57610100808354040283529160200191610459565b820191906000526020600020905b81548152906001019060200180831161043c57829003601f168201915b50505050509080600201805461046e9061140e565b80601f016020809104026020016040519081016040528092919081815260200182805461049a9061140e565b80156104e75780601f106104bc576101008083540402835291602001916104e7565b820191906000526020600020905b8154815290600101906020018083116104ca57829003601f168201915b5050505050908060030180546104fc9061140e565b80601f01602080910402602001604051908101604052809291908181526020018280546105289061140e565b80156105755780601f1061054a57610100808354040283529160200191610575565b820191906000526020600020905b81548152906001019060200180831161055857829003601f168201915b5050505050908060040160009054906101000a900460ff16905085565b60036020528060005260406000206000915090508060000154908060010180546105bb9061140e565b80601f01602080910402602001604051908101604052809291908181526020018280546105e79061140e565b80156106345780601f1061060957610100808354040283529160200191610634565b820191906000526020600020905b81548152906001019060200180831161061757829003601f168201915b5050505050908060020180546106499061140e565b80601f01602080910402602001604051908101604052809291908181526020018280546106759061140e565b80156106c25780601f10610697576101008083540402835291602001916106c2565b820191906000526020600020905b8154815290600101906020018083116106a557829003601f168201915b5050505050908060030154908060040154908060050160009054906101000a900473ffffffffffffffffffffffffffffffffffffffff16908060060180546107099061140e565b80601f01602080910402602001604051908101604052809291908181526020018280546107359061140e565b80156107825780601f1061075757610100808354040283529160200191610782565b820191906000526020600020905b81548152906001019060200180831161076557829003601f168201915b5050505050905087565b60008081548092919061079e90611471565b91905055506040518060e0016040528060005481526020018681526020018581526020018481526020018381526020013373ffffffffffffffffffffffffffffffffffffffff168152602001828152506003600080548152602001908152602001600020600082015181600001556020820151816001019080519060200190610828929190610dc9565b506040820151816002019080519060200190610845929190610dc9565b50606082015181600301556080820151816004015560a08201518160050160006101000a81548173ffffffffffffffffffffffffffffffffffffffff021916908373ffffffffffffffffffffffffffffffffffffffff16021790555060c08201518160060190805190602001906108bd929190610dc9565b509050505050505050565b6000600360008481526020019081526020016000206040518060e0016040529081600082015481526020016001820180546109029061140e565b80601f016020809104026020016040519081016040528092919081815260200182805461092e9061140e565b801561097b5780601f106109505761010080835404028352916020019161097b565b820191906000526020600020905b81548152906001019060200180831161095e57829003601f168201915b505050505081526020016002820180546109949061140e565b80601f01602080910402602001604051908101604052809291908181526020018280546109c09061140e565b8015610a0d5780601f106109e257610100808354040283529160200191610a0d565b820191906000526020600020905b8154815290600101906020018083116109f057829003601f168201915b5050505050815260200160038201548152602001600482015481526020016005820160009054906101000a900473ffffffffffffffffffffffffffffffffffffffff1673ffffffffffffffffffffffffffffffffffffffff1673ffffffffffffffffffffffffffffffffffffffff168152602001600682018054610a909061140e565b80601f0160208091040260200160405190810160405280929190818152602001828054610abc9061140e565b8015610b095780601f10610ade57610100808354040283529160200191610b09565b820191906000526020600020905b815481529060010190602001808311610aec57829003601f168201915b505050505081525050905081816060015111610b5a576040517f08c379a0000000000000000000000000000000000000000000000000000000008152600401610b5190611156565b60405180910390fd5b60008160a001519050600082606001511115610ce1578073ffffffffffffffffffffffffffffffffffffffff166108fc83608001519081150290604051600060405180830381858888f19350505050158015610bba573d6000803e3d6000fd5b50828260600151610bcb9190611350565b82606001818152505060026000815480929190610be790611471565b91905055506040518060a001604052806002548152602001836040015181526020013373ffffffffffffffffffffffffffffffffffffffff1681526020018481526020018360c00151815250600560006002548152602001908152602001600020600082015181600001556020820151816001019080519060200190610c6e929190610dc9565b5060408201518160020160006101000a81548173ffffffffffffffffffffffffffffffffffffffff021916908373ffffffffffffffffffffffffffffffffffffffff160217905550606082015181600301556080820151816004019080519060200190610cdc929190610dc9565b509050505b50505050565b60016000815480929190610cfa90611471565b91905055506040518060a001604052806001548152602001858152602001848152602001838152602001821515815250600460006001548152602001908152602001600020600082015181600001556020820151816001019080519060200190610d65929190610dc9565b506040820151816002019080519060200190610d82929190610dc9565b506060820151816003019080519060200190610d9f929190610dc9565b5060808201518160040160006101000a81548160ff02191690831515021790555090505050505050565b828054610dd59061140e565b90600052602060002090601f016020900481019282610df75760008555610e3e565b82601f10610e1057805160ff1916838001178555610e3e565b82800160010185558215610e3e579182015b82811115610e3d578251825591602001919060010190610e22565b5b509050610e4b9190610e4f565b5090565b5b80821115610e68576000816000905550600101610e50565b5090565b6000610e7f610e7a84611303565b6112de565b905082815260208101848484011115610e9757600080fd5b610ea28482856113cc565b509392505050565b600081359050610eb981611581565b92915050565b600082601f830112610ed057600080fd5b8135610ee0848260208601610e6c565b91505092915050565b600081359050610ef881611598565b92915050565b60008060008060808587031215610f1457600080fd5b600085013567ffffffffffffffff811115610f2e57600080fd5b610f3a87828801610ebf565b945050602085013567ffffffffffffffff811115610f5757600080fd5b610f6387828801610ebf565b935050604085013567ffffffffffffffff811115610f8057600080fd5b610f8c87828801610ebf565b9250506060610f9d87828801610eaa565b91505092959194509250565b600080600080600060a08688031215610fc157600080fd5b600086013567ffffffffffffffff811115610fdb57600080fd5b610fe788828901610ebf565b955050602086013567ffffffffffffffff81111561100457600080fd5b61101088828901610ebf565b945050604061102188828901610ee9565b935050606061103288828901610ee9565b925050608086013567ffffffffffffffff81111561104f57600080fd5b61105b88828901610ebf565b9150509295509295909350565b60006020828403121561107a57600080fd5b600061108884828501610ee9565b91505092915050565b600080604083850312156110a457600080fd5b60006110b285828601610ee9565b92505060206110c385828601610ee9565b9150509250929050565b6110d681611384565b82525050565b6110e581611396565b82525050565b60006110f682611334565b611100818561133f565b93506111108185602086016113db565b61111981611547565b840191505092915050565b6000611131601b8361133f565b915061113c82611558565b602082019050919050565b611150816113c2565b82525050565b6000602082019050818103600083015261116f81611124565b9050919050565b600060208201905061118b6000830184611147565b92915050565b600060a0820190506111a66000830188611147565b81810360208301526111b881876110eb565b90506111c760408301866110cd565b6111d46060830185611147565b81810360808301526111e681846110eb565b90509695505050505050565b600060a0820190506112076000830188611147565b818103602083015261121981876110eb565b9050818103604083015261122d81866110eb565b9050818103606083015261124181856110eb565b905061125060808301846110dc565b9695505050505050565b600060e08201905061126f600083018a611147565b818103602083015261128181896110eb565b9050818103604083015261129581886110eb565b90506112a46060830187611147565b6112b16080830186611147565b6112be60a08301856110cd565b81810360c08301526112d081846110eb565b905098975050505050505050565b60006112e86112f9565b90506112f48282611440565b919050565b6000604051905090565b600067ffffffffffffffff82111561131e5761131d611518565b5b61132782611547565b9050602081019050919050565b600081519050919050565b600082825260208201905092915050565b600061135b826113c2565b9150611366836113c2565b925082821015611379576113786114ba565b5b828203905092915050565b600061138f826113a2565b9050919050565b60008115159050919050565b600073ffffffffffffffffffffffffffffffffffffffff82169050919050565b6000819050919050565b82818337600083830152505050565b60005b838110156113f95780820151818401526020810190506113de565b83811115611408576000848401525b50505050565b6000600282049050600182168061142657607f821691505b6020821081141561143a576114396114e9565b5b50919050565b61144982611547565b810181811067ffffffffffffffff8211171561146857611467611518565b5b80604052505050565b600061147c826113c2565b91507fffffffffffffffffffffffffffffffffffffffffffffffffffffffffffffffff8214156114af576114ae6114ba565b5b600182019050919050565b7f4e487b7100000000000000000000000000000000000000000000000000000000600052601160045260246000fd5b7f4e487b7100000000000000000000000000000000000000000000000000000000600052602260045260246000fd5b7f4e487b7100000000000000000000000000000000000000000000000000000000600052604160045260246000fd5b6000601f19601f8301169050919050565b7f506c656173652053656c656374206c657373207175616e746974790000000000600082015250565b61158a81611396565b811461159557600080fd5b50565b6115a1816113c2565b81146115ac57600080fd5b5056fea2646970667358221220f7cfe0da3b0445df80faafd760aa890d8b4a3592ac0d018091f3548ba09a9c4e64736f6c63430008040033",
  "immutableReferences": {},
  "source": "pragma solidity ^0.8.4;\n\ncontract Marketplace {  \n    uint public productcount = 0;\n    uint public usercount = 0;\n    uint public receiptcount = 0;\n    mapping(uint => Product) public products;\n    mapping(uint => User)public user;\n    mapping(uint => Receipt)public receipts;\n\n    struct User {\n        uint id;\n        string name;\n        string email;\n        string hash;\n        bool artist;\n    }\n\n    struct Product{\n        uint Id;\n        string name;\n        string sellername;\n        uint quantity;\n        uint price;\n        address payable owner;\n        string hash;\n    }\n\n    struct Receipt{\n        uint idx;\n        string sellername;\n        address payable owner;\n        uint quantity;\n        string hash;\n    }\n\n    function createUser(string memory _name , string memory _email , string memory _hash , bool _artist) public{\n        usercount++;\n        user[usercount] = User(usercount,_name,_email,_hash ,_artist);\n    }\n    function createProduct(string memory _name , string memory _sellername , uint _quantity,uint _price,string memory _hash) public{\n        productcount++;\n        products[productcount] = Product(productcount,_name,_sellername,_quantity,_price,payable(msg.sender),_hash);\n    }\n\n    function buy(uint _id, uint _quantity) payable public {\n       \n        Product memory _product = products[_id];\n        require(_product.quantity > _quantity , \"Please Select less quantity\");\n        address payable _owner = _product.owner;\n        if ( _product.quantity > 0){\n            _owner.transfer(_product.price);\n            _product.quantity = _product.quantity - _quantity;\n            receiptcount++;\n            receipts[receiptcount] = Receipt(receiptcount, _product.sellername,payable(msg.sender),_quantity,_product.hash);\n\n        }\n    }\n\n\n\n\n    // function buy(address payable seller , uint price , bool favourite) payable public {\n    //     if (favourite){\n    //         seller.transfer( (90*price)%100  );\n    //     }else{\n    //         seller.transfer(price);\n    //     }\n    // }\n\n\n\n    \n}",
  "sourcePath": "/Users/preritrawtani/Desktop/blockchain/starter_kit/src/contracts/Marketplace.sol",
  "compiler": {
    "name": "solc",
    "version": "0.8.4+commit.c7e474f2.Emscripten.clang"
  },
  "schemaVersion": "3.4.0",
  "updatedAt": "2022-01-20T16:23:44.852Z",
  "networkType": "ethereum",
  "devdoc": {
    "kind": "dev",
    "methods": {},
    "version": 1
  },
  "userdoc": {
    "kind": "user",
    "methods": {},
    "version": 1
  }
}