{
  "contractName": "Marketplace",
  "abi": [
    {
      "inputs": [],
      "stateMutability": "nonpayable",
      "type": "constructor"
    },
    {
      "anonymous": false,
      "inputs": [
        {
          "indexed": true,
          "internalType": "address",
          "name": "owner",
          "type": "address"
        },
        {
          "indexed": true,
          "internalType": "address",
          "name": "approved",
          "type": "address"
        },
        {
          "indexed": true,
          "internalType": "uint256",
          "name": "tokenId",
          "type": "uint256"
        }
      ],
      "name": "Approval",
      "type": "event"
    },
    {
      "anonymous": false,
      "inputs": [
        {
          "indexed": true,
          "internalType": "address",
          "name": "owner",
          "type": "address"
        },
        {
          "indexed": true,
          "internalType": "address",
          "name": "operator",
          "type": "address"
        },
        {
          "indexed": false,
          "internalType": "bool",
          "name": "approved",
          "type": "bool"
        }
      ],
      "name": "ApprovalForAll",
      "type": "event"
    },
    {
      "anonymous": false,
      "inputs": [
        {
          "indexed": true,
          "internalType": "address",
          "name": "from",
          "type": "address"
        },
        {
          "indexed": true,
          "internalType": "address",
          "name": "to",
          "type": "address"
        },
        {
          "indexed": true,
          "internalType": "uint256",
          "name": "tokenId",
          "type": "uint256"
        }
      ],
      "name": "Transfer",
      "type": "event"
    },
    {
      "inputs": [
        {
          "internalType": "address",
          "name": "to",
          "type": "address"
        },
        {
          "internalType": "uint256",
          "name": "tokenId",
          "type": "uint256"
        }
      ],
      "name": "approve",
      "outputs": [],
      "stateMutability": "nonpayable",
      "type": "function"
    },
    {
      "inputs": [
        {
          "internalType": "address",
          "name": "owner",
          "type": "address"
        }
      ],
      "name": "balanceOf",
      "outputs": [
        {
          "internalType": "uint256",
          "name": "",
          "type": "uint256"
        }
      ],
      "stateMutability": "view",
      "type": "function",
      "constant": true
    },
    {
      "inputs": [
        {
          "internalType": "uint256",
          "name": "tokenId",
          "type": "uint256"
        }
      ],
      "name": "getApproved",
      "outputs": [
        {
          "internalType": "address",
          "name": "",
          "type": "address"
        }
      ],
      "stateMutability": "view",
      "type": "function",
      "constant": true
    },
    {
      "inputs": [
        {
          "internalType": "address",
          "name": "owner",
          "type": "address"
        },
        {
          "internalType": "address",
          "name": "operator",
          "type": "address"
        }
      ],
      "name": "isApprovedForAll",
      "outputs": [
        {
          "internalType": "bool",
          "name": "",
          "type": "bool"
        }
      ],
      "stateMutability": "view",
      "type": "function",
      "constant": true
    },
    {
      "inputs": [],
      "name": "name",
      "outputs": [
        {
          "internalType": "string",
          "name": "",
          "type": "string"
        }
      ],
      "stateMutability": "view",
      "type": "function",
      "constant": true
    },
    {
      "inputs": [
        {
          "internalType": "uint256",
          "name": "tokenId",
          "type": "uint256"
        }
      ],
      "name": "ownerOf",
      "outputs": [
        {
          "internalType": "address",
          "name": "",
          "type": "address"
        }
      ],
      "stateMutability": "view",
      "type": "function",
      "constant": true
    },
    {
      "inputs": [],
      "name": "productcount",
      "outputs": [
        {
          "internalType": "uint256",
          "name": "",
          "type": "uint256"
        }
      ],
      "stateMutability": "view",
      "type": "function",
      "constant": true
    },
    {
      "inputs": [
        {
          "internalType": "uint256",
          "name": "",
          "type": "uint256"
        }
      ],
      "name": "products",
      "outputs": [
        {
          "internalType": "uint256",
          "name": "Id",
          "type": "uint256"
        },
        {
          "internalType": "string",
          "name": "name",
          "type": "string"
        },
        {
          "internalType": "string",
          "name": "sellername",
          "type": "string"
        },
        {
          "internalType": "uint256",
          "name": "quantity",
          "type": "uint256"
        },
        {
          "internalType": "uint256",
          "name": "price",
          "type": "uint256"
        },
        {
          "internalType": "address payable",
          "name": "owner",
          "type": "address"
        },
        {
          "internalType": "string",
          "name": "hash",
          "type": "string"
        }
      ],
      "stateMutability": "view",
      "type": "function",
      "constant": true
    },
    {
      "inputs": [],
      "name": "receiptcount",
      "outputs": [
        {
          "internalType": "uint256",
          "name": "",
          "type": "uint256"
        }
      ],
      "stateMutability": "view",
      "type": "function",
      "constant": true
    },
    {
      "inputs": [
        {
          "internalType": "uint256",
          "name": "",
          "type": "uint256"
        }
      ],
      "name": "receipts",
      "outputs": [
        {
          "internalType": "uint256",
          "name": "idx",
          "type": "uint256"
        },
        {
          "internalType": "string",
          "name": "sellername",
          "type": "string"
        },
        {
          "internalType": "address payable",
          "name": "owner",
          "type": "address"
        },
        {
          "internalType": "uint256",
          "name": "quantity",
          "type": "uint256"
        },
        {
          "internalType": "string",
          "name": "hash",
          "type": "string"
        }
      ],
      "stateMutability": "view",
      "type": "function",
      "constant": true
    },
    {
      "inputs": [
        {
          "internalType": "address",
          "name": "from",
          "type": "address"
        },
        {
          "internalType": "address",
          "name": "to",
          "type": "address"
        },
        {
          "internalType": "uint256",
          "name": "tokenId",
          "type": "uint256"
        }
      ],
      "name": "safeTransferFrom",
      "outputs": [],
      "stateMutability": "nonpayable",
      "type": "function"
    },
    {
      "inputs": [
        {
          "internalType": "address",
          "name": "from",
          "type": "address"
        },
        {
          "internalType": "address",
          "name": "to",
          "type": "address"
        },
        {
          "internalType": "uint256",
          "name": "tokenId",
          "type": "uint256"
        },
        {
          "internalType": "bytes",
          "name": "_data",
          "type": "bytes"
        }
      ],
      "name": "safeTransferFrom",
      "outputs": [],
      "stateMutability": "nonpayable",
      "type": "function"
    },
    {
      "inputs": [
        {
          "internalType": "address",
          "name": "operator",
          "type": "address"
        },
        {
          "internalType": "bool",
          "name": "approved",
          "type": "bool"
        }
      ],
      "name": "setApprovalForAll",
      "outputs": [],
      "stateMutability": "nonpayable",
      "type": "function"
    },
    {
      "inputs": [
        {
          "internalType": "bytes4",
          "name": "interfaceId",
          "type": "bytes4"
        }
      ],
      "name": "supportsInterface",
      "outputs": [
        {
          "internalType": "bool",
          "name": "",
          "type": "bool"
        }
      ],
      "stateMutability": "view",
      "type": "function",
      "constant": true
    },
    {
      "inputs": [],
      "name": "symbol",
      "outputs": [
        {
          "internalType": "string",
          "name": "",
          "type": "string"
        }
      ],
      "stateMutability": "view",
      "type": "function",
      "constant": true
    },
    {
      "inputs": [
        {
          "internalType": "uint256",
          "name": "tokenId",
          "type": "uint256"
        }
      ],
      "name": "tokenURI",
      "outputs": [
        {
          "internalType": "string",
          "name": "",
          "type": "string"
        }
      ],
      "stateMutability": "view",
      "type": "function",
      "constant": true
    },
    {
      "inputs": [],
      "name": "tokencounter",
      "outputs": [
        {
          "internalType": "uint256",
          "name": "",
          "type": "uint256"
        }
      ],
      "stateMutability": "view",
      "type": "function",
      "constant": true
    },
    {
      "inputs": [
        {
          "internalType": "uint256",
          "name": "",
          "type": "uint256"
        }
      ],
      "name": "tokens",
      "outputs": [
        {
          "internalType": "uint256",
          "name": "ids",
          "type": "uint256"
        },
        {
          "internalType": "string",
          "name": "hash",
          "type": "string"
        }
      ],
      "stateMutability": "view",
      "type": "function",
      "constant": true
    },
    {
      "inputs": [],
      "name": "tokenuri",
      "outputs": [
        {
          "internalType": "uint256",
          "name": "",
          "type": "uint256"
        }
      ],
      "stateMutability": "view",
      "type": "function",
      "constant": true
    },
    {
      "inputs": [
        {
          "internalType": "address",
          "name": "from",
          "type": "address"
        },
        {
          "internalType": "address",
          "name": "to",
          "type": "address"
        },
        {
          "internalType": "uint256",
          "name": "tokenId",
          "type": "uint256"
        }
      ],
      "name": "transferFrom",
      "outputs": [],
      "stateMutability": "nonpayable",
      "type": "function"
    },
    {
      "inputs": [
        {
          "internalType": "uint256",
          "name": "",
          "type": "uint256"
        }
      ],
      "name": "user",
      "outputs": [
        {
          "internalType": "uint256",
          "name": "id",
          "type": "uint256"
        },
        {
          "internalType": "string",
          "name": "name",
          "type": "string"
        },
        {
          "internalType": "string",
          "name": "email",
          "type": "string"
        },
        {
          "internalType": "string",
          "name": "hash",
          "type": "string"
        },
        {
          "internalType": "string",
          "name": "location",
          "type": "string"
        },
        {
          "internalType": "bool",
          "name": "artist",
          "type": "bool"
        },
        {
          "internalType": "address",
          "name": "user",
          "type": "address"
        },
        {
          "internalType": "uint256",
          "name": "coins",
          "type": "uint256"
        }
      ],
      "stateMutability": "view",
      "type": "function",
      "constant": true
    },
    {
      "inputs": [],
      "name": "usercount",
      "outputs": [
        {
          "internalType": "uint256",
          "name": "",
          "type": "uint256"
        }
      ],
      "stateMutability": "view",
      "type": "function",
      "constant": true
    },
    {
      "inputs": [
        {
          "internalType": "string",
          "name": "tokenURI",
          "type": "string"
        }
      ],
      "name": "createCollectibles",
      "outputs": [
        {
          "internalType": "uint256",
          "name": "",
          "type": "uint256"
        }
      ],
      "stateMutability": "nonpayable",
      "type": "function"
    },
    {
      "inputs": [
        {
          "internalType": "string",
          "name": "_name",
          "type": "string"
        },
        {
          "internalType": "string",
          "name": "_email",
          "type": "string"
        },
        {
          "internalType": "string",
          "name": "_hash",
          "type": "string"
        },
        {
          "internalType": "bool",
          "name": "_artist",
          "type": "bool"
        },
        {
          "internalType": "string",
          "name": "_location",
          "type": "string"
        }
      ],
      "name": "createUser",
      "outputs": [],
      "stateMutability": "nonpayable",
      "type": "function"
    },
    {
      "inputs": [
        {
          "internalType": "string",
          "name": "_name",
          "type": "string"
        },
        {
          "internalType": "string",
          "name": "_sellername",
          "type": "string"
        },
        {
          "internalType": "uint256",
          "name": "_quantity",
          "type": "uint256"
        },
        {
          "internalType": "uint256",
          "name": "_price",
          "type": "uint256"
        },
        {
          "internalType": "string",
          "name": "_hash",
          "type": "string"
        }
      ],
      "name": "createProduct",
      "outputs": [],
      "stateMutability": "nonpayable",
      "type": "function"
    },
    {
      "inputs": [
        {
          "internalType": "string",
          "name": "_hash",
          "type": "string"
        }
      ],
      "name": "createToken",
      "outputs": [],
      "stateMutability": "nonpayable",
      "type": "function"
    },
    {
      "inputs": [
        {
          "internalType": "uint256",
          "name": "_id",
          "type": "uint256"
        },
        {
          "internalType": "uint256",
          "name": "_quantity",
          "type": "uint256"
        }
      ],
      "name": "buy",
      "outputs": [],
      "stateMutability": "payable",
      "type": "function",
      "payable": true
    },
    {
      "inputs": [
        {
          "internalType": "uint256",
          "name": "_id",
          "type": "uint256"
        },
        {
          "internalType": "uint256",
          "name": "_quantity",
          "type": "uint256"
        }
      ],
      "name": "buyMM",
      "outputs": [],
      "stateMutability": "payable",
      "type": "function",
      "payable": true
    }
  ],
  "bytecode": "0x60806040526000600755600060085560006009556000600a553480156200002557600080fd5b506040518060400160405280600b81526020017f4d61726b6574706c6163650000000000000000000000000000000000000000008152506040518060400160405280600381526020017f4d505400000000000000000000000000000000000000000000000000000000008152508160009080519060200190620000aa929190620000d4565b508060019080519060200190620000c3929190620000d4565b5050506000600f81905550620001e9565b828054620000e29062000184565b90600052602060002090601f01602090048101928262000106576000855562000152565b82601f106200012157805160ff191683800117855562000152565b8280016001018555821562000152579182015b828111156200015157825182559160200191906001019062000134565b5b50905062000161919062000165565b5090565b5b808211156200018057600081600090555060010162000166565b5090565b600060028204905060018216806200019d57607f821691505b60208210811415620001b457620001b3620001ba565b5b50919050565b7f4e487b7100000000000000000000000000000000000000000000000000000000600052602260045260246000fd5b6148ce80620001f96000396000f3fe6080604052600436106101b75760003560e01c80636352211e116100ec57806395d89b411161008a578063c87b56dd11610064578063c87b56dd1461065b578063ccfcaea414610698578063d6febde8146106c1578063e985e9c5146106dd576101b7565b806395d89b41146105de578063a22cb46514610609578063b88d4fde14610632576101b7565b806370a08231116100c657806370a08231146105195780637853c35c146105565780637acc0b201461057f5780637e25213d146105c2576101b7565b80636352211e146104745780636a98de4c146104b15780636bf7ea5f146104dc576101b7565b8063115ae1431161015957806342842e0e1161013357806342842e0e146103a057806345576f94146103c95780634f64b2be146103f2578063553275be14610430576101b7565b8063115ae1431461032157806323b872dd1461034c5780632ef6ac6614610375576101b7565b8063095ea7b311610195578063095ea7b3146102615780630efe9da71461028a5780630f322c1e146102b55780630f7ee1ec146102e0576101b7565b806301ffc9a7146101bc57806306fdde03146101f9578063081812fc14610224575b600080fd5b3480156101c857600080fd5b506101e360048036038101906101de919061352c565b61071a565b6040516101f09190613b77565b60405180910390f35b34801561020557600080fd5b5061020e6107fc565b60405161021b9190613b92565b60405180910390f35b34801561023057600080fd5b5061024b60048036038101906102469190613755565b61088e565b6040516102589190613b10565b60405180910390f35b34801561026d57600080fd5b50610288600480360381019061028391906134f0565b610913565b005b34801561029657600080fd5b5061029f610a2b565b6040516102ac9190613dd4565b60405180910390f35b3480156102c157600080fd5b506102ca610a31565b6040516102d79190613dd4565b60405180910390f35b3480156102ec57600080fd5b5061030760048036038101906103029190613755565b610a37565b604051610318959493929190613e1f565b60405180910390f35b34801561032d57600080fd5b50610336610b9d565b6040516103439190613dd4565b60405180910390f35b34801561035857600080fd5b50610373600480360381019061036e91906133ea565b610ba3565b005b34801561038157600080fd5b5061038a610c03565b6040516103979190613dd4565b60405180910390f35b3480156103ac57600080fd5b506103c760048036038101906103c291906133ea565b610c09565b005b3480156103d557600080fd5b506103f060048036038101906103eb919061357e565b610c29565b005b3480156103fe57600080fd5b5061041960048036038101906104149190613755565b610c9a565b604051610427929190613def565b60405180910390f35b34801561043c57600080fd5b5061045760048036038101906104529190613755565b610d46565b60405161046b989796959493929190613e80565b60405180910390f35b34801561048057600080fd5b5061049b60048036038101906104969190613755565b610fdb565b6040516104a89190613b10565b60405180910390f35b3480156104bd57600080fd5b506104c661108d565b6040516104d39190613dd4565b60405180910390f35b3480156104e857600080fd5b5061050360048036038101906104fe919061357e565b611093565b6040516105109190613dd4565b60405180910390f35b34801561052557600080fd5b50610540600480360381019061053b9190613385565b6110d0565b60405161054d9190613dd4565b60405180910390f35b34801561056257600080fd5b5061057d600480360381019061057891906135bf565b611188565b005b34801561058b57600080fd5b506105a660048036038101906105a19190613755565b611303565b6040516105b99796959493929190613f1a565b60405180910390f35b6105dc60048036038101906105d7919061377e565b6114fd565b005b3480156105ea57600080fd5b506105f3611a5c565b6040516106009190613b92565b60405180910390f35b34801561061557600080fd5b50610630600480360381019061062b91906134b4565b611aee565b005b34801561063e57600080fd5b5061065960048036038101906106549190613439565b611b04565b005b34801561066757600080fd5b50610682600480360381019061067d9190613755565b611b66565b60405161068f9190613b92565b60405180910390f35b3480156106a457600080fd5b506106bf60048036038101906106ba9190613696565b611cb8565b005b6106db60048036038101906106d6919061377e565b611df6565b005b3480156106e957600080fd5b5061070460048036038101906106ff91906133ae565b6123a6565b6040516107119190613b77565b60405180910390f35b60007f80ac58cd000000000000000000000000000000000000000000000000000000007bffffffffffffffffffffffffffffffffffffffffffffffffffffffff1916827bffffffffffffffffffffffffffffffffffffffffffffffffffffffff191614806107e557507f5b5e139f000000000000000000000000000000000000000000000000000000007bffffffffffffffffffffffffffffffffffffffffffffffffffffffff1916827bffffffffffffffffffffffffffffffffffffffffffffffffffffffff1916145b806107f557506107f48261243a565b5b9050919050565b60606000805461080b906141eb565b80601f0160208091040260200160405190810160405280929190818152602001828054610837906141eb565b80156108845780601f1061085957610100808354040283529160200191610884565b820191906000526020600020905b81548152906001019060200180831161086757829003601f168201915b5050505050905090565b6000610899826124a4565b6108d8576040517f08c379a00000000000000000000000000000000000000000000000000000000081526004016108cf90613d14565b60405180910390fd5b6004600083815260200190815260200160002060009054906101000a900473ffffffffffffffffffffffffffffffffffffffff169050919050565b600061091e82610fdb565b90508073ffffffffffffffffffffffffffffffffffffffff168373ffffffffffffffffffffffffffffffffffffffff16141561098f576040517f08c379a000000000000000000000000000000000000000000000000000000000815260040161098690613d74565b60405180910390fd5b8073ffffffffffffffffffffffffffffffffffffffff166109ae612510565b73ffffffffffffffffffffffffffffffffffffffff1614806109dd57506109dc816109d7612510565b6123a6565b5b610a1c576040517f08c379a0000000000000000000000000000000000000000000000000000000008152600401610a1390613c54565b60405180910390fd5b610a268383612518565b505050565b60095481565b60085481565b600d602052806000526040600020600091509050806000015490806001018054610a60906141eb565b80601f0160208091040260200160405190810160405280929190818152602001828054610a8c906141eb565b8015610ad95780601f10610aae57610100808354040283529160200191610ad9565b820191906000526020600020905b815481529060010190602001808311610abc57829003601f168201915b5050505050908060020160009054906101000a900473ffffffffffffffffffffffffffffffffffffffff1690806003015490806004018054610b1a906141eb565b80601f0160208091040260200160405190810160405280929190818152602001828054610b46906141eb565b8015610b935780601f10610b6857610100808354040283529160200191610b93565b820191906000526020600020905b815481529060010190602001808311610b7657829003601f168201915b5050505050905085565b600f5481565b610bb4610bae612510565b826125d1565b610bf3576040517f08c379a0000000000000000000000000000000000000000000000000000000008152600401610bea90613db4565b60405180910390fd5b610bfe8383836126af565b505050565b60075481565b610c2483838360405180602001604052806000815250611b04565b505050565b600a6000815480929190610c3c9061424e565b91905055506040518060400160405280600a54815260200182815250600e6000600a548152602001908152602001600020600082015181600001556020820151816001019080519060200190610c939291906131a9565b5090505050565b600e602052806000526040600020600091509050806000015490806001018054610cc3906141eb565b80601f0160208091040260200160405190810160405280929190818152602001828054610cef906141eb565b8015610d3c5780601f10610d1157610100808354040283529160200191610d3c565b820191906000526020600020905b815481529060010190602001808311610d1f57829003601f168201915b5050505050905082565b600c602052806000526040600020600091509050806000015490806001018054610d6f906141eb565b80601f0160208091040260200160405190810160405280929190818152602001828054610d9b906141eb565b8015610de85780601f10610dbd57610100808354040283529160200191610de8565b820191906000526020600020905b815481529060010190602001808311610dcb57829003601f168201915b505050505090806002018054610dfd906141eb565b80601f0160208091040260200160405190810160405280929190818152602001828054610e29906141eb565b8015610e765780601f10610e4b57610100808354040283529160200191610e76565b820191906000526020600020905b815481529060010190602001808311610e5957829003601f168201915b505050505090806003018054610e8b906141eb565b80601f0160208091040260200160405190810160405280929190818152602001828054610eb7906141eb565b8015610f045780601f10610ed957610100808354040283529160200191610f04565b820191906000526020600020905b815481529060010190602001808311610ee757829003601f168201915b505050505090806004018054610f19906141eb565b80601f0160208091040260200160405190810160405280929190818152602001828054610f45906141eb565b8015610f925780601f10610f6757610100808354040283529160200191610f92565b820191906000526020600020905b815481529060010190602001808311610f7557829003601f168201915b5050505050908060050160009054906101000a900460ff16908060050160019054906101000a900473ffffffffffffffffffffffffffffffffffffffff16908060060154905088565b6000806002600084815260200190815260200160002060009054906101000a900473ffffffffffffffffffffffffffffffffffffffff169050600073ffffffffffffffffffffffffffffffffffffffff168173ffffffffffffffffffffffffffffffffffffffff161415611084576040517f08c379a000000000000000000000000000000000000000000000000000000000815260040161107b90613c94565b60405180910390fd5b80915050919050565b600a5481565b600080600f5490506110a5338261290b565b6110af8184612929565b600f60008154809291906110c29061424e565b919050555080915050919050565b60008073ffffffffffffffffffffffffffffffffffffffff168273ffffffffffffffffffffffffffffffffffffffff161415611141576040517f08c379a000000000000000000000000000000000000000000000000000000000815260040161113890613c74565b60405180910390fd5b600360008373ffffffffffffffffffffffffffffffffffffffff1673ffffffffffffffffffffffffffffffffffffffff168152602001908152602001600020549050919050565b6008600081548092919061119b9061424e565b9190505550604051806101000160405280600854815260200186815260200185815260200184815260200182815260200183151581526020013373ffffffffffffffffffffffffffffffffffffffff1681526020016000815250600c600060085481526020019081526020016000206000820151816000015560208201518160010190805190602001906112309291906131a9565b50604082015181600201908051906020019061124d9291906131a9565b50606082015181600301908051906020019061126a9291906131a9565b5060808201518160040190805190602001906112879291906131a9565b5060a08201518160050160006101000a81548160ff02191690831515021790555060c08201518160050160016101000a81548173ffffffffffffffffffffffffffffffffffffffff021916908373ffffffffffffffffffffffffffffffffffffffff16021790555060e082015181600601559050505050505050565b600b60205280600052604060002060009150905080600001549080600101805461132c906141eb565b80601f0160208091040260200160405190810160405280929190818152602001828054611358906141eb565b80156113a55780601f1061137a576101008083540402835291602001916113a5565b820191906000526020600020905b81548152906001019060200180831161138857829003601f168201915b5050505050908060020180546113ba906141eb565b80601f01602080910402602001604051908101604052809291908181526020018280546113e6906141eb565b80156114335780601f1061140857610100808354040283529160200191611433565b820191906000526020600020905b81548152906001019060200180831161141657829003601f168201915b5050505050908060030154908060040154908060050160009054906101000a900473ffffffffffffffffffffffffffffffffffffffff169080600601805461147a906141eb565b80601f01602080910402602001604051908101604052809291908181526020018280546114a6906141eb565b80156114f35780601f106114c8576101008083540402835291602001916114f3565b820191906000526020600020905b8154815290600101906020018083116114d657829003601f168201915b5050505050905087565b6000600b60008481526020019081526020016000206040518060e001604052908160008201548152602001600182018054611537906141eb565b80601f0160208091040260200160405190810160405280929190818152602001828054611563906141eb565b80156115b05780601f10611585576101008083540402835291602001916115b0565b820191906000526020600020905b81548152906001019060200180831161159357829003601f168201915b505050505081526020016002820180546115c9906141eb565b80601f01602080910402602001604051908101604052809291908181526020018280546115f5906141eb565b80156116425780601f1061161757610100808354040283529160200191611642565b820191906000526020600020905b81548152906001019060200180831161162557829003601f168201915b5050505050815260200160038201548152602001600482015481526020016005820160009054906101000a900473ffffffffffffffffffffffffffffffffffffffff1673ffffffffffffffffffffffffffffffffffffffff1673ffffffffffffffffffffffffffffffffffffffff1681526020016006820180546116c5906141eb565b80601f01602080910402602001604051908101604052809291908181526020018280546116f1906141eb565b801561173e5780601f106117135761010080835404028352916020019161173e565b820191906000526020600020905b81548152906001019060200180831161172157829003601f168201915b50505050508152505090508181606001511161178f576040517f08c379a000000000000000000000000000000000000000000000000000000000815260040161178690613d94565b60405180910390fd5b600060019050600190505b6008548111611a56573373ffffffffffffffffffffffffffffffffffffffff16600c600083815260200190815260200160002060050160019054906101000a900473ffffffffffffffffffffffffffffffffffffffff1673ffffffffffffffffffffffffffffffffffffffff161415611a4357600a600c60008381526020019081526020016000206006015461183091906140ef565b600c60008381526020019081526020016000206006018190555082826060015161185a91906140ef565b82606001818152505081600b600086815260200190815260200160002060008201518160000155602082015181600101908051906020019061189d9291906131a9565b5060408201518160020190805190602001906118ba9291906131a9565b50606082015181600301556080820151816004015560a08201518160050160006101000a81548173ffffffffffffffffffffffffffffffffffffffff021916908373ffffffffffffffffffffffffffffffffffffffff16021790555060c08201518160060190805190602001906119329291906131a9565b50905050600960008154809291906119499061424e565b91905055506040518060a001604052806009548152602001836040015181526020013373ffffffffffffffffffffffffffffffffffffffff1681526020018481526020018360c00151815250600d600060095481526020019081526020016000206000820151816000015560208201518160010190805190602001906119d09291906131a9565b5060408201518160020160006101000a81548173ffffffffffffffffffffffffffffffffffffffff021916908373ffffffffffffffffffffffffffffffffffffffff160217905550606082015181600301556080820151816004019080519060200190611a3e9291906131a9565b509050505b8080611a4e9061424e565b91505061179a565b50505050565b606060018054611a6b906141eb565b80601f0160208091040260200160405190810160405280929190818152602001828054611a97906141eb565b8015611ae45780601f10611ab957610100808354040283529160200191611ae4565b820191906000526020600020905b815481529060010190602001808311611ac757829003601f168201915b5050505050905090565b611b00611af9612510565b838361299d565b5050565b611b15611b0f612510565b836125d1565b611b54576040517f08c379a0000000000000000000000000000000000000000000000000000000008152600401611b4b90613db4565b60405180910390fd5b611b6084848484612b0a565b50505050565b6060611b71826124a4565b611bb0576040517f08c379a0000000000000000000000000000000000000000000000000000000008152600401611ba790613cf4565b60405180910390fd5b6000600660008481526020019081526020016000208054611bd0906141eb565b80601f0160208091040260200160405190810160405280929190818152602001828054611bfc906141eb565b8015611c495780601f10611c1e57610100808354040283529160200191611c49565b820191906000526020600020905b815481529060010190602001808311611c2c57829003601f168201915b505050505090506000611c5a612b66565b9050600081511415611c70578192505050611cb3565b600082511115611ca5578082604051602001611c8d929190613aec565b60405160208183030381529060405292505050611cb3565b611cae84612b7d565b925050505b919050565b60076000815480929190611ccb9061424e565b91905055506040518060e0016040528060075481526020018681526020018581526020018481526020018381526020013373ffffffffffffffffffffffffffffffffffffffff16815260200182815250600b60006007548152602001908152602001600020600082015181600001556020820151816001019080519060200190611d569291906131a9565b506040820151816002019080519060200190611d739291906131a9565b50606082015181600301556080820151816004015560a08201518160050160006101000a81548173ffffffffffffffffffffffffffffffffffffffff021916908373ffffffffffffffffffffffffffffffffffffffff16021790555060c0820151816006019080519060200190611deb9291906131a9565b509050505050505050565b6000600b60008481526020019081526020016000206040518060e001604052908160008201548152602001600182018054611e30906141eb565b80601f0160208091040260200160405190810160405280929190818152602001828054611e5c906141eb565b8015611ea95780601f10611e7e57610100808354040283529160200191611ea9565b820191906000526020600020905b815481529060010190602001808311611e8c57829003601f168201915b50505050508152602001600282018054611ec2906141eb565b80601f0160208091040260200160405190810160405280929190818152602001828054611eee906141eb565b8015611f3b5780601f10611f1057610100808354040283529160200191611f3b565b820191906000526020600020905b815481529060010190602001808311611f1e57829003601f168201915b5050505050815260200160038201548152602001600482015481526020016005820160009054906101000a900473ffffffffffffffffffffffffffffffffffffffff1673ffffffffffffffffffffffffffffffffffffffff1673ffffffffffffffffffffffffffffffffffffffff168152602001600682018054611fbe906141eb565b80601f0160208091040260200160405190810160405280929190818152602001828054611fea906141eb565b80156120375780601f1061200c57610100808354040283529160200191612037565b820191906000526020600020905b81548152906001019060200180831161201a57829003601f168201915b505050505081525050905081816060015111612088576040517f08c379a000000000000000000000000000000000000000000000000000000000815260040161207f90613d94565b60405180910390fd5b60008160a0015190508073ffffffffffffffffffffffffffffffffffffffff166108fc349081150290604051600060405180830381858888f193505050501580156120d7573d6000803e3d6000fd5b508282606001516120e891906140ef565b82606001818152505081600b600086815260200190815260200160002060008201518160000155602082015181600101908051906020019061212b9291906131a9565b5060408201518160020190805190602001906121489291906131a9565b50606082015181600301556080820151816004015560a08201518160050160006101000a81548173ffffffffffffffffffffffffffffffffffffffff021916908373ffffffffffffffffffffffffffffffffffffffff16021790555060c08201518160060190805190602001906121c09291906131a9565b50905050600960008154809291906121d79061424e565b91905055506040518060a001604052806009548152602001836040015181526020013373ffffffffffffffffffffffffffffffffffffffff1681526020018481526020018360c00151815250600d6000600954815260200190815260200160002060008201518160000155602082015181600101908051906020019061225e9291906131a9565b5060408201518160020160006101000a81548173ffffffffffffffffffffffffffffffffffffffff021916908373ffffffffffffffffffffffffffffffffffffffff1602179055506060820151816003015560808201518160040190805190602001906122cc9291906131a9565b50905050600060019050600190505b600854811161239f573373ffffffffffffffffffffffffffffffffffffffff16600c600083815260200190815260200160002060050160019054906101000a900473ffffffffffffffffffffffffffffffffffffffff1673ffffffffffffffffffffffffffffffffffffffff16141561238c57600a600c6000838152602001908152602001600020600601546123719190614068565b600c6000838152602001908152602001600020600601819055505b80806123979061424e565b9150506122db565b5050505050565b6000600560008473ffffffffffffffffffffffffffffffffffffffff1673ffffffffffffffffffffffffffffffffffffffff16815260200190815260200160002060008373ffffffffffffffffffffffffffffffffffffffff1673ffffffffffffffffffffffffffffffffffffffff16815260200190815260200160002060009054906101000a900460ff16905092915050565b60007f01ffc9a7000000000000000000000000000000000000000000000000000000007bffffffffffffffffffffffffffffffffffffffffffffffffffffffff1916827bffffffffffffffffffffffffffffffffffffffffffffffffffffffff1916149050919050565b60008073ffffffffffffffffffffffffffffffffffffffff166002600084815260200190815260200160002060009054906101000a900473ffffffffffffffffffffffffffffffffffffffff1673ffffffffffffffffffffffffffffffffffffffff1614159050919050565b600033905090565b816004600083815260200190815260200160002060006101000a81548173ffffffffffffffffffffffffffffffffffffffff021916908373ffffffffffffffffffffffffffffffffffffffff160217905550808273ffffffffffffffffffffffffffffffffffffffff1661258b83610fdb565b73ffffffffffffffffffffffffffffffffffffffff167f8c5be1e5ebec7d5bd14f71427d1e84f3dd0314c0f7b2291e5b200ac8c7c3b92560405160405180910390a45050565b60006125dc826124a4565b61261b576040517f08c379a000000000000000000000000000000000000000000000000000000000815260040161261290613c34565b60405180910390fd5b600061262683610fdb565b90508073ffffffffffffffffffffffffffffffffffffffff168473ffffffffffffffffffffffffffffffffffffffff16148061269557508373ffffffffffffffffffffffffffffffffffffffff1661267d8461088e565b73ffffffffffffffffffffffffffffffffffffffff16145b806126a657506126a581856123a6565b5b91505092915050565b8273ffffffffffffffffffffffffffffffffffffffff166126cf82610fdb565b73ffffffffffffffffffffffffffffffffffffffff1614612725576040517f08c379a000000000000000000000000000000000000000000000000000000000815260040161271c90613d34565b60405180910390fd5b600073ffffffffffffffffffffffffffffffffffffffff168273ffffffffffffffffffffffffffffffffffffffff161415612795576040517f08c379a000000000000000000000000000000000000000000000000000000000815260040161278c90613bf4565b60405180910390fd5b6127a0838383612c24565b6127ab600082612518565b6001600360008573ffffffffffffffffffffffffffffffffffffffff1673ffffffffffffffffffffffffffffffffffffffff16815260200190815260200160002060008282546127fb91906140ef565b925050819055506001600360008473ffffffffffffffffffffffffffffffffffffffff1673ffffffffffffffffffffffffffffffffffffffff16815260200190815260200160002060008282546128529190614068565b92505081905550816002600083815260200190815260200160002060006101000a81548173ffffffffffffffffffffffffffffffffffffffff021916908373ffffffffffffffffffffffffffffffffffffffff160217905550808273ffffffffffffffffffffffffffffffffffffffff168473ffffffffffffffffffffffffffffffffffffffff167fddf252ad1be2c89b69c2b068fc378daa952ba7f163c4a11628f55a4df523b3ef60405160405180910390a4505050565b612925828260405180602001604052806000815250612c29565b5050565b612932826124a4565b612971576040517f08c379a000000000000000000000000000000000000000000000000000000000815260040161296890613cb4565b60405180910390fd5b806006600084815260200190815260200160002090805190602001906129989291906131a9565b505050565b8173ffffffffffffffffffffffffffffffffffffffff168373ffffffffffffffffffffffffffffffffffffffff161415612a0c576040517f08c379a0000000000000000000000000000000000000000000000000000000008152600401612a0390613c14565b60405180910390fd5b80600560008573ffffffffffffffffffffffffffffffffffffffff1673ffffffffffffffffffffffffffffffffffffffff16815260200190815260200160002060008473ffffffffffffffffffffffffffffffffffffffff1673ffffffffffffffffffffffffffffffffffffffff16815260200190815260200160002060006101000a81548160ff0219169083151502179055508173ffffffffffffffffffffffffffffffffffffffff168373ffffffffffffffffffffffffffffffffffffffff167f17307eab39ab6107e8899845ad3d59bd9653f200f220920489ca2b5937696c3183604051612afd9190613b77565b60405180910390a3505050565b612b158484846126af565b612b2184848484612c84565b612b60576040517f08c379a0000000000000000000000000000000000000000000000000000000008152600401612b5790613bb4565b60405180910390fd5b50505050565b606060405180602001604052806000815250905090565b6060612b88826124a4565b612bc7576040517f08c379a0000000000000000000000000000000000000000000000000000000008152600401612bbe90613d54565b60405180910390fd5b6000612bd1612b66565b90506000815111612bf15760405180602001604052806000815250612c1c565b80612bfb84612e1b565b604051602001612c0c929190613aec565b6040516020818303038152906040525b915050919050565b505050565b612c338383612fc8565b612c406000848484612c84565b612c7f576040517f08c379a0000000000000000000000000000000000000000000000000000000008152600401612c7690613bb4565b60405180910390fd5b505050565b6000612ca58473ffffffffffffffffffffffffffffffffffffffff16613196565b15612e0e578373ffffffffffffffffffffffffffffffffffffffff1663150b7a02612cce612510565b8786866040518563ffffffff1660e01b8152600401612cf09493929190613b2b565b602060405180830381600087803b158015612d0a57600080fd5b505af1925050508015612d3b57506040513d601f19601f82011682018060405250810190612d389190613555565b60015b612dbe573d8060008114612d6b576040519150601f19603f3d011682016040523d82523d6000602084013e612d70565b606091505b50600081511415612db6576040517f08c379a0000000000000000000000000000000000000000000000000000000008152600401612dad90613bb4565b60405180910390fd5b805181602001fd5b63150b7a0260e01b7bffffffffffffffffffffffffffffffffffffffffffffffffffffffff1916817bffffffffffffffffffffffffffffffffffffffffffffffffffffffff191614915050612e13565b600190505b949350505050565b60606000821415612e63576040518060400160405280600181526020017f30000000000000000000000000000000000000000000000000000000000000008152509050612fc3565b600082905060005b60008214612e95578080612e7e9061424e565b915050600a82612e8e91906140be565b9150612e6b565b60008167ffffffffffffffff811115612ed7577f4e487b7100000000000000000000000000000000000000000000000000000000600052604160045260246000fd5b6040519080825280601f01601f191660200182016040528015612f095781602001600182028036833780820191505090505b5090505b60008514612fbc57600182612f2291906140ef565b9150600a85612f319190614297565b6030612f3d9190614068565b60f81b818381518110612f79577f4e487b7100000000000000000000000000000000000000000000000000000000600052603260045260246000fd5b60200101907effffffffffffffffffffffffffffffffffffffffffffffffffffffffffffff1916908160001a905350600a85612fb591906140be565b9450612f0d565b8093505050505b919050565b600073ffffffffffffffffffffffffffffffffffffffff168273ffffffffffffffffffffffffffffffffffffffff161415613038576040517f08c379a000000000000000000000000000000000000000000000000000000000815260040161302f90613cd4565b60405180910390fd5b613041816124a4565b15613081576040517f08c379a000000000000000000000000000000000000000000000000000000000815260040161307890613bd4565b60405180910390fd5b61308d60008383612c24565b6001600360008473ffffffffffffffffffffffffffffffffffffffff1673ffffffffffffffffffffffffffffffffffffffff16815260200190815260200160002060008282546130dd9190614068565b92505081905550816002600083815260200190815260200160002060006101000a81548173ffffffffffffffffffffffffffffffffffffffff021916908373ffffffffffffffffffffffffffffffffffffffff160217905550808273ffffffffffffffffffffffffffffffffffffffff16600073ffffffffffffffffffffffffffffffffffffffff167fddf252ad1be2c89b69c2b068fc378daa952ba7f163c4a11628f55a4df523b3ef60405160405180910390a45050565b600080823b905060008111915050919050565b8280546131b5906141eb565b90600052602060002090601f0160209004810192826131d7576000855561321e565b82601f106131f057805160ff191683800117855561321e565b8280016001018555821561321e579182015b8281111561321d578251825591602001919060010190613202565b5b50905061322b919061322f565b5090565b5b80821115613248576000816000905550600101613230565b5090565b600061325f61325a84613fc3565b613f9e565b90508281526020810184848401111561327757600080fd5b6132828482856141a9565b509392505050565b600061329d61329884613ff4565b613f9e565b9050828152602081018484840111156132b557600080fd5b6132c08482856141a9565b509392505050565b6000813590506132d78161483c565b92915050565b6000813590506132ec81614853565b92915050565b6000813590506133018161486a565b92915050565b6000815190506133168161486a565b92915050565b600082601f83011261332d57600080fd5b813561333d84826020860161324c565b91505092915050565b600082601f83011261335757600080fd5b813561336784826020860161328a565b91505092915050565b60008135905061337f81614881565b92915050565b60006020828403121561339757600080fd5b60006133a5848285016132c8565b91505092915050565b600080604083850312156133c157600080fd5b60006133cf858286016132c8565b92505060206133e0858286016132c8565b9150509250929050565b6000806000606084860312156133ff57600080fd5b600061340d868287016132c8565b935050602061341e868287016132c8565b925050604061342f86828701613370565b9150509250925092565b6000806000806080858703121561344f57600080fd5b600061345d878288016132c8565b945050602061346e878288016132c8565b935050604061347f87828801613370565b925050606085013567ffffffffffffffff81111561349c57600080fd5b6134a88782880161331c565b91505092959194509250565b600080604083850312156134c757600080fd5b60006134d5858286016132c8565b92505060206134e6858286016132dd565b9150509250929050565b6000806040838503121561350357600080fd5b6000613511858286016132c8565b925050602061352285828601613370565b9150509250929050565b60006020828403121561353e57600080fd5b600061354c848285016132f2565b91505092915050565b60006020828403121561356757600080fd5b600061357584828501613307565b91505092915050565b60006020828403121561359057600080fd5b600082013567ffffffffffffffff8111156135aa57600080fd5b6135b684828501613346565b91505092915050565b600080600080600060a086880312156135d757600080fd5b600086013567ffffffffffffffff8111156135f157600080fd5b6135fd88828901613346565b955050602086013567ffffffffffffffff81111561361a57600080fd5b61362688828901613346565b945050604086013567ffffffffffffffff81111561364357600080fd5b61364f88828901613346565b9350506060613660888289016132dd565b925050608086013567ffffffffffffffff81111561367d57600080fd5b61368988828901613346565b9150509295509295909350565b600080600080600060a086880312156136ae57600080fd5b600086013567ffffffffffffffff8111156136c857600080fd5b6136d488828901613346565b955050602086013567ffffffffffffffff8111156136f157600080fd5b6136fd88828901613346565b945050604061370e88828901613370565b935050606061371f88828901613370565b925050608086013567ffffffffffffffff81111561373c57600080fd5b61374888828901613346565b9150509295509295909350565b60006020828403121561376757600080fd5b600061377584828501613370565b91505092915050565b6000806040838503121561379157600080fd5b600061379f85828601613370565b92505060206137b085828601613370565b9150509250929050565b6137c381614135565b82525050565b6137d281614123565b82525050565b6137e181614147565b82525050565b60006137f282614025565b6137fc818561403b565b935061380c8185602086016141b8565b61381581614384565b840191505092915050565b600061382b82614030565b613835818561404c565b93506138458185602086016141b8565b61384e81614384565b840191505092915050565b600061386482614030565b61386e818561405d565b935061387e8185602086016141b8565b80840191505092915050565b600061389760328361404c565b91506138a282614395565b604082019050919050565b60006138ba601c8361404c565b91506138c5826143e4565b602082019050919050565b60006138dd60248361404c565b91506138e88261440d565b604082019050919050565b600061390060198361404c565b915061390b8261445c565b602082019050919050565b6000613923602c8361404c565b915061392e82614485565b604082019050919050565b600061394660388361404c565b9150613951826144d4565b604082019050919050565b6000613969602a8361404c565b915061397482614523565b604082019050919050565b600061398c60298361404c565b915061399782614572565b604082019050919050565b60006139af602e8361404c565b91506139ba826145c1565b604082019050919050565b60006139d260208361404c565b91506139dd82614610565b602082019050919050565b60006139f560318361404c565b9150613a0082614639565b604082019050919050565b6000613a18602c8361404c565b9150613a2382614688565b604082019050919050565b6000613a3b60298361404c565b9150613a46826146d7565b604082019050919050565b6000613a5e602f8361404c565b9150613a6982614726565b604082019050919050565b6000613a8160218361404c565b9150613a8c82614775565b604082019050919050565b6000613aa4601b8361404c565b9150613aaf826147c4565b602082019050919050565b6000613ac760318361404c565b9150613ad2826147ed565b604082019050919050565b613ae68161419f565b82525050565b6000613af88285613859565b9150613b048284613859565b91508190509392505050565b6000602082019050613b2560008301846137c9565b92915050565b6000608082019050613b4060008301876137c9565b613b4d60208301866137c9565b613b5a6040830185613add565b8181036060830152613b6c81846137e7565b905095945050505050565b6000602082019050613b8c60008301846137d8565b92915050565b60006020820190508181036000830152613bac8184613820565b905092915050565b60006020820190508181036000830152613bcd8161388a565b9050919050565b60006020820190508181036000830152613bed816138ad565b9050919050565b60006020820190508181036000830152613c0d816138d0565b9050919050565b60006020820190508181036000830152613c2d816138f3565b9050919050565b60006020820190508181036000830152613c4d81613916565b9050919050565b60006020820190508181036000830152613c6d81613939565b9050919050565b60006020820190508181036000830152613c8d8161395c565b9050919050565b60006020820190508181036000830152613cad8161397f565b9050919050565b60006020820190508181036000830152613ccd816139a2565b9050919050565b60006020820190508181036000830152613ced816139c5565b9050919050565b60006020820190508181036000830152613d0d816139e8565b9050919050565b60006020820190508181036000830152613d2d81613a0b565b9050919050565b60006020820190508181036000830152613d4d81613a2e565b9050919050565b60006020820190508181036000830152613d6d81613a51565b9050919050565b60006020820190508181036000830152613d8d81613a74565b9050919050565b60006020820190508181036000830152613dad81613a97565b9050919050565b60006020820190508181036000830152613dcd81613aba565b9050919050565b6000602082019050613de96000830184613add565b92915050565b6000604082019050613e046000830185613add565b8181036020830152613e168184613820565b90509392505050565b600060a082019050613e346000830188613add565b8181036020830152613e468187613820565b9050613e5560408301866137ba565b613e626060830185613add565b8181036080830152613e748184613820565b90509695505050505050565b600061010082019050613e96600083018b613add565b8181036020830152613ea8818a613820565b90508181036040830152613ebc8189613820565b90508181036060830152613ed08188613820565b90508181036080830152613ee48187613820565b9050613ef360a08301866137d8565b613f0060c08301856137c9565b613f0d60e0830184613add565b9998505050505050505050565b600060e082019050613f2f600083018a613add565b8181036020830152613f418189613820565b90508181036040830152613f558188613820565b9050613f646060830187613add565b613f716080830186613add565b613f7e60a08301856137ba565b81810360c0830152613f908184613820565b905098975050505050505050565b6000613fa8613fb9565b9050613fb4828261421d565b919050565b6000604051905090565b600067ffffffffffffffff821115613fde57613fdd614355565b5b613fe782614384565b9050602081019050919050565b600067ffffffffffffffff82111561400f5761400e614355565b5b61401882614384565b9050602081019050919050565b600081519050919050565b600081519050919050565b600082825260208201905092915050565b600082825260208201905092915050565b600081905092915050565b60006140738261419f565b915061407e8361419f565b9250827fffffffffffffffffffffffffffffffffffffffffffffffffffffffffffffffff038211156140b3576140b26142c8565b5b828201905092915050565b60006140c98261419f565b91506140d48361419f565b9250826140e4576140e36142f7565b5b828204905092915050565b60006140fa8261419f565b91506141058361419f565b925082821015614118576141176142c8565b5b828203905092915050565b600061412e8261417f565b9050919050565b60006141408261417f565b9050919050565b60008115159050919050565b60007fffffffff0000000000000000000000000000000000000000000000000000000082169050919050565b600073ffffffffffffffffffffffffffffffffffffffff82169050919050565b6000819050919050565b82818337600083830152505050565b60005b838110156141d65780820151818401526020810190506141bb565b838111156141e5576000848401525b50505050565b6000600282049050600182168061420357607f821691505b6020821081141561421757614216614326565b5b50919050565b61422682614384565b810181811067ffffffffffffffff8211171561424557614244614355565b5b80604052505050565b60006142598261419f565b91507fffffffffffffffffffffffffffffffffffffffffffffffffffffffffffffffff82141561428c5761428b6142c8565b5b600182019050919050565b60006142a28261419f565b91506142ad8361419f565b9250826142bd576142bc6142f7565b5b828206905092915050565b7f4e487b7100000000000000000000000000000000000000000000000000000000600052601160045260246000fd5b7f4e487b7100000000000000000000000000000000000000000000000000000000600052601260045260246000fd5b7f4e487b7100000000000000000000000000000000000000000000000000000000600052602260045260246000fd5b7f4e487b7100000000000000000000000000000000000000000000000000000000600052604160045260246000fd5b6000601f19601f8301169050919050565b7f4552433732313a207472616e7366657220746f206e6f6e20455243373231526560008201527f63656976657220696d706c656d656e7465720000000000000000000000000000602082015250565b7f4552433732313a20746f6b656e20616c7265616479206d696e74656400000000600082015250565b7f4552433732313a207472616e7366657220746f20746865207a65726f2061646460008201527f7265737300000000000000000000000000000000000000000000000000000000602082015250565b7f4552433732313a20617070726f766520746f2063616c6c657200000000000000600082015250565b7f4552433732313a206f70657261746f7220717565727920666f72206e6f6e657860008201527f697374656e7420746f6b656e0000000000000000000000000000000000000000602082015250565b7f4552433732313a20617070726f76652063616c6c6572206973206e6f74206f7760008201527f6e6572206e6f7220617070726f76656420666f7220616c6c0000000000000000602082015250565b7f4552433732313a2062616c616e636520717565727920666f7220746865207a6560008201527f726f206164647265737300000000000000000000000000000000000000000000602082015250565b7f4552433732313a206f776e657220717565727920666f72206e6f6e657869737460008201527f656e7420746f6b656e0000000000000000000000000000000000000000000000602082015250565b7f45524337323155524953746f726167653a2055524920736574206f66206e6f6e60008201527f6578697374656e7420746f6b656e000000000000000000000000000000000000602082015250565b7f4552433732313a206d696e7420746f20746865207a65726f2061646472657373600082015250565b7f45524337323155524953746f726167653a2055524920717565727920666f722060008201527f6e6f6e6578697374656e7420746f6b656e000000000000000000000000000000602082015250565b7f4552433732313a20617070726f76656420717565727920666f72206e6f6e657860008201527f697374656e7420746f6b656e0000000000000000000000000000000000000000602082015250565b7f4552433732313a207472616e73666572206f6620746f6b656e2074686174206960008201527f73206e6f74206f776e0000000000000000000000000000000000000000000000602082015250565b7f4552433732314d657461646174613a2055524920717565727920666f72206e6f60008201527f6e6578697374656e7420746f6b656e0000000000000000000000000000000000602082015250565b7f4552433732313a20617070726f76616c20746f2063757272656e74206f776e6560008201527f7200000000000000000000000000000000000000000000000000000000000000602082015250565b7f506c656173652053656c656374206c657373207175616e746974790000000000600082015250565b7f4552433732313a207472616e736665722063616c6c6572206973206e6f74206f60008201527f776e6572206e6f7220617070726f766564000000000000000000000000000000602082015250565b61484581614123565b811461485057600080fd5b50565b61485c81614147565b811461486757600080fd5b50565b61487381614153565b811461487e57600080fd5b50565b61488a8161419f565b811461489557600080fd5b5056fea2646970667358221220e1a3e2929159ebdce467ef1ca51d2440778003a749b72ade1b5bc1eb4ed5ffee64736f6c63430008040033",
  "immutableReferences": {},
  "source": "pragma solidity ^0.8.4;\n\nimport \"@openzeppelin/contracts/utils/Counters.sol\";\nimport \"@openzeppelin/contracts/token/ERC721/extensions/ERC721URIStorage.sol\";\nimport \"@openzeppelin/contracts/token/ERC721/ERC721.sol\";\n\ncontract Marketplace is ERC721URIStorage {  \n    uint public productcount = 0;\n    uint public usercount = 0;\n    uint public receiptcount = 0;\n    uint public tokenuri = 0;\n    mapping(uint => Product) public products;\n    mapping(uint => User)public user;\n    mapping(uint => Receipt)public receipts;\n    mapping(uint => Token)public tokens;\n\n    struct Token{\n        uint ids;\n        string hash;\n    }\n\n\n\n    uint public tokencounter;\n    constructor() public ERC721(\"Marketplace\", \"MPT\") {\n        tokencounter = 0;\n    }\n\n    function createCollectibles(string memory tokenURI) public returns (uint256){\n        uint256 newItemId = tokencounter;\n        _safeMint(msg.sender, newItemId);\n        _setTokenURI(newItemId, tokenURI);\n        tokencounter++;\n        return newItemId;\n    }\n\n    struct User {\n        uint id;\n        string name;\n        string email;\n        string hash;\n        string location;\n        bool artist;\n        address  user;\n        uint coins;\n    }\n\n    struct Product{\n        uint Id;\n        string name;\n        string sellername;\n        uint quantity;\n        uint price;\n        address payable owner;\n        string hash;\n    }\n\n    struct Receipt{\n        uint idx;\n        string sellername;\n        address payable owner;\n        uint quantity;\n        string hash;\n    }\n\n    function createUser(string memory _name , string memory _email , string memory _hash , bool _artist,string memory _location) public{\n        usercount++;\n        user[usercount] = User(usercount,_name,_email,_hash , _location  ,_artist,msg.sender,0);\n    }\n    function createProduct(string memory _name , string memory _sellername , uint _quantity,uint _price,string memory _hash) public{\n        productcount++;\n        products[productcount] = Product(productcount,_name,_sellername,_quantity,_price,payable(msg.sender),_hash);\n    }\n    function createToken(string memory _hash) public {\n        tokenuri++;\n        tokens[tokenuri] = Token(tokenuri,_hash);\n    }\n\n    function buy(uint _id, uint _quantity ) payable public {\n       \n        Product memory _product = products[_id];\n        require(_product.quantity > _quantity , \"Please Select less quantity\");\n        address payable _owner = _product.owner;\n      \n             _owner.transfer(msg.value);\n\n       \n         _product.quantity = _product.quantity - _quantity;\n            products[_id] = _product;\n            receiptcount++;\n            receipts[receiptcount] = Receipt(receiptcount,_product.sellername,payable(msg.sender),_quantity,_product.hash);\n            uint _i = 1;\n            for (_i = 1; _i <= usercount;_i++){\n                if(user[_i].user == msg.sender){\n                    user[_i].coins = user[_i].coins + 10;\n                }\n            }\n            \n        \n    }\n\n    function buyMM(uint _id, uint _quantity) payable public {\n       \n        Product memory _product = products[_id];\n        require(_product.quantity > _quantity , \"Please Select less quantity\"); \n            uint _i = 1;\n            for (_i = 1; _i <= usercount;_i++){\n                if(user[_i].user == msg.sender){\n                    user[_i].coins = user[_i].coins - 10;\n                     _product.quantity = _product.quantity - _quantity;\n                     products[_id] = _product;\n                     receiptcount++;\n                    receipts[receiptcount] = Receipt(receiptcount,_product.sellername,payable(msg.sender),_quantity,_product.hash);\n                   \n                }\n            }\n            \n        \n    }\n\n\n\n\n    // function buy(address payable seller , uint price , bool favourite) payable public {\n    //     if (favourite){\n    //         seller.transfer( (90*price)%100  );\n    //     }else{\n    //         seller.transfer(price);\n    //     }\n    // }\n\n\n\n    \n}",
  "sourcePath": "/Users/preritrawtani/Desktop/blockchain/starter_kit/src/contracts/Marketplace.sol",
  "compiler": {
    "name": "solc",
    "version": "0.8.4+commit.c7e474f2.Emscripten.clang"
  },
  "schemaVersion": "3.4.0",
  "updatedAt": "2022-01-22T18:49:12.086Z",
  "networkType": "ethereum",
  "devdoc": {
    "kind": "dev",
    "methods": {
      "approve(address,uint256)": {
        "details": "See {IERC721-approve}."
      },
      "balanceOf(address)": {
        "details": "See {IERC721-balanceOf}."
      },
      "getApproved(uint256)": {
        "details": "See {IERC721-getApproved}."
      },
      "isApprovedForAll(address,address)": {
        "details": "See {IERC721-isApprovedForAll}."
      },
      "name()": {
        "details": "See {IERC721Metadata-name}."
      },
      "ownerOf(uint256)": {
        "details": "See {IERC721-ownerOf}."
      },
      "safeTransferFrom(address,address,uint256)": {
        "details": "See {IERC721-safeTransferFrom}."
      },
      "safeTransferFrom(address,address,uint256,bytes)": {
        "details": "See {IERC721-safeTransferFrom}."
      },
      "setApprovalForAll(address,bool)": {
        "details": "See {IERC721-setApprovalForAll}."
      },
      "supportsInterface(bytes4)": {
        "details": "See {IERC165-supportsInterface}."
      },
      "symbol()": {
        "details": "See {IERC721Metadata-symbol}."
      },
      "tokenURI(uint256)": {
        "details": "See {IERC721Metadata-tokenURI}."
      },
      "transferFrom(address,address,uint256)": {
        "details": "See {IERC721-transferFrom}."
      }
    },
    "version": 1
  },
  "userdoc": {
    "kind": "user",
    "methods": {},
    "version": 1
  }
}