{
  "contractName": "Marketplace",
  "abi": [
    {
      "inputs": [],
      "name": "productcount",
      "outputs": [
        {
          "internalType": "uint256",
          "name": "",
          "type": "uint256"
        }
      ],
      "stateMutability": "view",
      "type": "function",
      "constant": true
    },
    {
      "inputs": [
        {
          "internalType": "uint256",
          "name": "",
          "type": "uint256"
        }
      ],
      "name": "products",
      "outputs": [
        {
          "internalType": "uint256",
          "name": "Id",
          "type": "uint256"
        },
        {
          "internalType": "string",
          "name": "name",
          "type": "string"
        },
        {
          "internalType": "string",
          "name": "sellername",
          "type": "string"
        },
        {
          "internalType": "uint256",
          "name": "quantity",
          "type": "uint256"
        },
        {
          "internalType": "uint256",
          "name": "price",
          "type": "uint256"
        },
        {
          "internalType": "address payable",
          "name": "owner",
          "type": "address"
        },
        {
          "internalType": "string",
          "name": "hash",
          "type": "string"
        }
      ],
      "stateMutability": "view",
      "type": "function",
      "constant": true
    },
    {
      "inputs": [],
      "name": "receiptcount",
      "outputs": [
        {
          "internalType": "uint256",
          "name": "",
          "type": "uint256"
        }
      ],
      "stateMutability": "view",
      "type": "function",
      "constant": true
    },
    {
      "inputs": [
        {
          "internalType": "uint256",
          "name": "",
          "type": "uint256"
        }
      ],
      "name": "receipts",
      "outputs": [
        {
          "internalType": "uint256",
          "name": "idx",
          "type": "uint256"
        },
        {
          "internalType": "string",
          "name": "sellername",
          "type": "string"
        },
        {
          "internalType": "address payable",
          "name": "owner",
          "type": "address"
        },
        {
          "internalType": "uint256",
          "name": "quantity",
          "type": "uint256"
        },
        {
          "internalType": "string",
          "name": "hash",
          "type": "string"
        }
      ],
      "stateMutability": "view",
      "type": "function",
      "constant": true
    },
    {
      "inputs": [
        {
          "internalType": "uint256",
          "name": "",
          "type": "uint256"
        }
      ],
      "name": "user",
      "outputs": [
        {
          "internalType": "uint256",
          "name": "id",
          "type": "uint256"
        },
        {
          "internalType": "string",
          "name": "name",
          "type": "string"
        },
        {
          "internalType": "string",
          "name": "email",
          "type": "string"
        },
        {
          "internalType": "string",
          "name": "hash",
          "type": "string"
        },
        {
          "internalType": "string",
          "name": "location",
          "type": "string"
        },
        {
          "internalType": "bool",
          "name": "artist",
          "type": "bool"
        },
        {
          "internalType": "address",
          "name": "user",
          "type": "address"
        },
        {
          "internalType": "uint256",
          "name": "coins",
          "type": "uint256"
        }
      ],
      "stateMutability": "view",
      "type": "function",
      "constant": true
    },
    {
      "inputs": [],
      "name": "usercount",
      "outputs": [
        {
          "internalType": "uint256",
          "name": "",
          "type": "uint256"
        }
      ],
      "stateMutability": "view",
      "type": "function",
      "constant": true
    },
    {
      "inputs": [
        {
          "internalType": "string",
          "name": "_name",
          "type": "string"
        },
        {
          "internalType": "string",
          "name": "_email",
          "type": "string"
        },
        {
          "internalType": "string",
          "name": "_hash",
          "type": "string"
        },
        {
          "internalType": "bool",
          "name": "_artist",
          "type": "bool"
        },
        {
          "internalType": "string",
          "name": "_location",
          "type": "string"
        }
      ],
      "name": "createUser",
      "outputs": [],
      "stateMutability": "nonpayable",
      "type": "function"
    },
    {
      "inputs": [
        {
          "internalType": "string",
          "name": "_name",
          "type": "string"
        },
        {
          "internalType": "string",
          "name": "_sellername",
          "type": "string"
        },
        {
          "internalType": "uint256",
          "name": "_quantity",
          "type": "uint256"
        },
        {
          "internalType": "uint256",
          "name": "_price",
          "type": "uint256"
        },
        {
          "internalType": "string",
          "name": "_hash",
          "type": "string"
        }
      ],
      "name": "createProduct",
      "outputs": [],
      "stateMutability": "nonpayable",
      "type": "function"
    },
    {
      "inputs": [
        {
          "internalType": "uint256",
          "name": "_id",
          "type": "uint256"
        },
        {
          "internalType": "uint256",
          "name": "_quantity",
          "type": "uint256"
        }
      ],
      "name": "buy",
      "outputs": [],
      "stateMutability": "payable",
      "type": "function",
      "payable": true
    },
    {
      "inputs": [
        {
          "internalType": "uint256",
          "name": "_id",
          "type": "uint256"
        },
        {
          "internalType": "uint256",
          "name": "_quantity",
          "type": "uint256"
        }
      ],
      "name": "buyMM",
      "outputs": [],
      "stateMutability": "payable",
      "type": "function",
      "payable": true
    }
  ],
  "bytecode": "0x6080604052600080556000600155600060025534801561001e57600080fd5b50611f2b8061002e6000396000f3fe6080604052600436106100915760003560e01c80637853c35c116100595780637853c35c1461019c5780637acc0b20146101c55780637e25213d14610208578063ccfcaea414610224578063d6febde81461024d57610091565b80630efe9da7146100965780630f322c1e146100c15780630f7ee1ec146100ec5780632ef6ac661461012d578063553275be14610158575b600080fd5b3480156100a257600080fd5b506100ab610269565b6040516100b89190611a22565b60405180910390f35b3480156100cd57600080fd5b506100d661026f565b6040516100e39190611a22565b60405180910390f35b3480156100f857600080fd5b50610113600480360381019061010e9190611905565b610275565b604051610124959493929190611a3d565b60405180910390f35b34801561013957600080fd5b506101426103db565b60405161014f9190611a22565b60405180910390f35b34801561016457600080fd5b5061017f600480360381019061017a9190611905565b6103e1565b604051610193989796959493929190611a9e565b60405180910390f35b3480156101a857600080fd5b506101c360048036038101906101be919061176f565b610676565b005b3480156101d157600080fd5b506101ec60048036038101906101e79190611905565b6107f1565b6040516101ff9796959493929190611b38565b60405180910390f35b610222600480360381019061021d919061192e565b6109eb565b005b34801561023057600080fd5b5061024b60048036038101906102469190611846565b610f4a565b005b6102676004803603810190610262919061192e565b611086565b005b60025481565b60015481565b600560205280600052604060002060009150905080600001549080600101805461029e90611d54565b80601f01602080910402602001604051908101604052809291908181526020018280546102ca90611d54565b80156103175780601f106102ec57610100808354040283529160200191610317565b820191906000526020600020905b8154815290600101906020018083116102fa57829003601f168201915b5050505050908060020160009054906101000a900473ffffffffffffffffffffffffffffffffffffffff169080600301549080600401805461035890611d54565b80601f016020809104026020016040519081016040528092919081815260200182805461038490611d54565b80156103d15780601f106103a6576101008083540402835291602001916103d1565b820191906000526020600020905b8154815290600101906020018083116103b457829003601f168201915b5050505050905085565b60005481565b600460205280600052604060002060009150905080600001549080600101805461040a90611d54565b80601f016020809104026020016040519081016040528092919081815260200182805461043690611d54565b80156104835780601f1061045857610100808354040283529160200191610483565b820191906000526020600020905b81548152906001019060200180831161046657829003601f168201915b50505050509080600201805461049890611d54565b80601f01602080910402602001604051908101604052809291908181526020018280546104c490611d54565b80156105115780601f106104e657610100808354040283529160200191610511565b820191906000526020600020905b8154815290600101906020018083116104f457829003601f168201915b50505050509080600301805461052690611d54565b80601f016020809104026020016040519081016040528092919081815260200182805461055290611d54565b801561059f5780601f106105745761010080835404028352916020019161059f565b820191906000526020600020905b81548152906001019060200180831161058257829003601f168201915b5050505050908060040180546105b490611d54565b80601f01602080910402602001604051908101604052809291908181526020018280546105e090611d54565b801561062d5780601f106106025761010080835404028352916020019161062d565b820191906000526020600020905b81548152906001019060200180831161061057829003601f168201915b5050505050908060050160009054906101000a900460ff16908060050160019054906101000a900473ffffffffffffffffffffffffffffffffffffffff16908060060154905088565b6001600081548092919061068990611db7565b9190505550604051806101000160405280600154815260200186815260200185815260200184815260200182815260200183151581526020013373ffffffffffffffffffffffffffffffffffffffff168152602001600081525060046000600154815260200190815260200160002060008201518160000155602082015181600101908051906020019061071e92919061163a565b50604082015181600201908051906020019061073b92919061163a565b50606082015181600301908051906020019061075892919061163a565b50608082015181600401908051906020019061077592919061163a565b5060a08201518160050160006101000a81548160ff02191690831515021790555060c08201518160050160016101000a81548173ffffffffffffffffffffffffffffffffffffffff021916908373ffffffffffffffffffffffffffffffffffffffff16021790555060e082015181600601559050505050505050565b600360205280600052604060002060009150905080600001549080600101805461081a90611d54565b80601f016020809104026020016040519081016040528092919081815260200182805461084690611d54565b80156108935780601f1061086857610100808354040283529160200191610893565b820191906000526020600020905b81548152906001019060200180831161087657829003601f168201915b5050505050908060020180546108a890611d54565b80601f01602080910402602001604051908101604052809291908181526020018280546108d490611d54565b80156109215780601f106108f657610100808354040283529160200191610921565b820191906000526020600020905b81548152906001019060200180831161090457829003601f168201915b5050505050908060030154908060040154908060050160009054906101000a900473ffffffffffffffffffffffffffffffffffffffff169080600601805461096890611d54565b80601f016020809104026020016040519081016040528092919081815260200182805461099490611d54565b80156109e15780601f106109b6576101008083540402835291602001916109e1565b820191906000526020600020905b8154815290600101906020018083116109c457829003601f168201915b5050505050905087565b6000600360008481526020019081526020016000206040518060e001604052908160008201548152602001600182018054610a2590611d54565b80601f0160208091040260200160405190810160405280929190818152602001828054610a5190611d54565b8015610a9e5780601f10610a7357610100808354040283529160200191610a9e565b820191906000526020600020905b815481529060010190602001808311610a8157829003601f168201915b50505050508152602001600282018054610ab790611d54565b80601f0160208091040260200160405190810160405280929190818152602001828054610ae390611d54565b8015610b305780601f10610b0557610100808354040283529160200191610b30565b820191906000526020600020905b815481529060010190602001808311610b1357829003601f168201915b5050505050815260200160038201548152602001600482015481526020016005820160009054906101000a900473ffffffffffffffffffffffffffffffffffffffff1673ffffffffffffffffffffffffffffffffffffffff1673ffffffffffffffffffffffffffffffffffffffff168152602001600682018054610bb390611d54565b80601f0160208091040260200160405190810160405280929190818152602001828054610bdf90611d54565b8015610c2c5780601f10610c0157610100808354040283529160200191610c2c565b820191906000526020600020905b815481529060010190602001808311610c0f57829003601f168201915b505050505081525050905081816060015111610c7d576040517f08c379a0000000000000000000000000000000000000000000000000000000008152600401610c7490611a02565b60405180910390fd5b600060019050600190505b6001548111610f44573373ffffffffffffffffffffffffffffffffffffffff166004600083815260200190815260200160002060050160019054906101000a900473ffffffffffffffffffffffffffffffffffffffff1673ffffffffffffffffffffffffffffffffffffffff161415610f3157600a6004600083815260200190815260200160002060060154610d1e9190611c84565b6004600083815260200190815260200160002060060181905550828260600151610d489190611c84565b8260600181815250508160036000868152602001908152602001600020600082015181600001556020820151816001019080519060200190610d8b92919061163a565b506040820151816002019080519060200190610da892919061163a565b50606082015181600301556080820151816004015560a08201518160050160006101000a81548173ffffffffffffffffffffffffffffffffffffffff021916908373ffffffffffffffffffffffffffffffffffffffff16021790555060c0820151816006019080519060200190610e2092919061163a565b5090505060026000815480929190610e3790611db7565b91905055506040518060a001604052806002548152602001836040015181526020013373ffffffffffffffffffffffffffffffffffffffff1681526020018481526020018360c00151815250600560006002548152602001908152602001600020600082015181600001556020820151816001019080519060200190610ebe92919061163a565b5060408201518160020160006101000a81548173ffffffffffffffffffffffffffffffffffffffff021916908373ffffffffffffffffffffffffffffffffffffffff160217905550606082015181600301556080820151816004019080519060200190610f2c92919061163a565b509050505b8080610f3c90611db7565b915050610c88565b50505050565b600080815480929190610f5c90611db7565b91905055506040518060e0016040528060005481526020018681526020018581526020018481526020018381526020013373ffffffffffffffffffffffffffffffffffffffff168152602001828152506003600080548152602001908152602001600020600082015181600001556020820151816001019080519060200190610fe692919061163a565b50604082015181600201908051906020019061100392919061163a565b50606082015181600301556080820151816004015560a08201518160050160006101000a81548173ffffffffffffffffffffffffffffffffffffffff021916908373ffffffffffffffffffffffffffffffffffffffff16021790555060c082015181600601908051906020019061107b92919061163a565b509050505050505050565b6000600360008481526020019081526020016000206040518060e0016040529081600082015481526020016001820180546110c090611d54565b80601f01602080910402602001604051908101604052809291908181526020018280546110ec90611d54565b80156111395780601f1061110e57610100808354040283529160200191611139565b820191906000526020600020905b81548152906001019060200180831161111c57829003601f168201915b5050505050815260200160028201805461115290611d54565b80601f016020809104026020016040519081016040528092919081815260200182805461117e90611d54565b80156111cb5780601f106111a0576101008083540402835291602001916111cb565b820191906000526020600020905b8154815290600101906020018083116111ae57829003601f168201915b5050505050815260200160038201548152602001600482015481526020016005820160009054906101000a900473ffffffffffffffffffffffffffffffffffffffff1673ffffffffffffffffffffffffffffffffffffffff1673ffffffffffffffffffffffffffffffffffffffff16815260200160068201805461124e90611d54565b80601f016020809104026020016040519081016040528092919081815260200182805461127a90611d54565b80156112c75780601f1061129c576101008083540402835291602001916112c7565b820191906000526020600020905b8154815290600101906020018083116112aa57829003601f168201915b505050505081525050905081816060015111611318576040517f08c379a000000000000000000000000000000000000000000000000000000000815260040161130f90611a02565b60405180910390fd5b60008160a0015190508073ffffffffffffffffffffffffffffffffffffffff166108fc83608001519081150290604051600060405180830381858888f1935050505015801561136b573d6000803e3d6000fd5b5082826060015161137c9190611c84565b82606001818152505081600360008681526020019081526020016000206000820151816000015560208201518160010190805190602001906113bf92919061163a565b5060408201518160020190805190602001906113dc92919061163a565b50606082015181600301556080820151816004015560a08201518160050160006101000a81548173ffffffffffffffffffffffffffffffffffffffff021916908373ffffffffffffffffffffffffffffffffffffffff16021790555060c082015181600601908051906020019061145492919061163a565b509050506002600081548092919061146b90611db7565b91905055506040518060a001604052806002548152602001836040015181526020013373ffffffffffffffffffffffffffffffffffffffff1681526020018481526020018360c001518152506005600060025481526020019081526020016000206000820151816000015560208201518160010190805190602001906114f292919061163a565b5060408201518160020160006101000a81548173ffffffffffffffffffffffffffffffffffffffff021916908373ffffffffffffffffffffffffffffffffffffffff16021790555060608201518160030155608082015181600401908051906020019061156092919061163a565b50905050600060019050600190505b6001548111611633573373ffffffffffffffffffffffffffffffffffffffff166004600083815260200190815260200160002060050160019054906101000a900473ffffffffffffffffffffffffffffffffffffffff1673ffffffffffffffffffffffffffffffffffffffff16141561162057600a60046000838152602001908152602001600020600601546116059190611c2e565b60046000838152602001908152602001600020600601819055505b808061162b90611db7565b91505061156f565b5050505050565b82805461164690611d54565b90600052602060002090601f01602090048101928261166857600085556116af565b82601f1061168157805160ff19168380011785556116af565b828001600101855582156116af579182015b828111156116ae578251825591602001919060010190611693565b5b5090506116bc91906116c0565b5090565b5b808211156116d95760008160009055506001016116c1565b5090565b60006116f06116eb84611be1565b611bbc565b90508281526020810184848401111561170857600080fd5b611713848285611d12565b509392505050565b60008135905061172a81611ec7565b92915050565b600082601f83011261174157600080fd5b81356117518482602086016116dd565b91505092915050565b60008135905061176981611ede565b92915050565b600080600080600060a0868803121561178757600080fd5b600086013567ffffffffffffffff8111156117a157600080fd5b6117ad88828901611730565b955050602086013567ffffffffffffffff8111156117ca57600080fd5b6117d688828901611730565b945050604086013567ffffffffffffffff8111156117f357600080fd5b6117ff88828901611730565b93505060606118108882890161171b565b925050608086013567ffffffffffffffff81111561182d57600080fd5b61183988828901611730565b9150509295509295909350565b600080600080600060a0868803121561185e57600080fd5b600086013567ffffffffffffffff81111561187857600080fd5b61188488828901611730565b955050602086013567ffffffffffffffff8111156118a157600080fd5b6118ad88828901611730565b94505060406118be8882890161175a565b93505060606118cf8882890161175a565b925050608086013567ffffffffffffffff8111156118ec57600080fd5b6118f888828901611730565b9150509295509295909350565b60006020828403121561191757600080fd5b60006119258482850161175a565b91505092915050565b6000806040838503121561194157600080fd5b600061194f8582860161175a565b92505060206119608582860161175a565b9150509250929050565b61197381611cca565b82525050565b61198281611cb8565b82525050565b61199181611cdc565b82525050565b60006119a282611c12565b6119ac8185611c1d565b93506119bc818560208601611d21565b6119c581611e8d565b840191505092915050565b60006119dd601b83611c1d565b91506119e882611e9e565b602082019050919050565b6119fc81611d08565b82525050565b60006020820190508181036000830152611a1b816119d0565b9050919050565b6000602082019050611a3760008301846119f3565b92915050565b600060a082019050611a5260008301886119f3565b8181036020830152611a648187611997565b9050611a73604083018661196a565b611a8060608301856119f3565b8181036080830152611a928184611997565b90509695505050505050565b600061010082019050611ab4600083018b6119f3565b8181036020830152611ac6818a611997565b90508181036040830152611ada8189611997565b90508181036060830152611aee8188611997565b90508181036080830152611b028187611997565b9050611b1160a0830186611988565b611b1e60c0830185611979565b611b2b60e08301846119f3565b9998505050505050505050565b600060e082019050611b4d600083018a6119f3565b8181036020830152611b5f8189611997565b90508181036040830152611b738188611997565b9050611b8260608301876119f3565b611b8f60808301866119f3565b611b9c60a083018561196a565b81810360c0830152611bae8184611997565b905098975050505050505050565b6000611bc6611bd7565b9050611bd28282611d86565b919050565b6000604051905090565b600067ffffffffffffffff821115611bfc57611bfb611e5e565b5b611c0582611e8d565b9050602081019050919050565b600081519050919050565b600082825260208201905092915050565b6000611c3982611d08565b9150611c4483611d08565b9250827fffffffffffffffffffffffffffffffffffffffffffffffffffffffffffffffff03821115611c7957611c78611e00565b5b828201905092915050565b6000611c8f82611d08565b9150611c9a83611d08565b925082821015611cad57611cac611e00565b5b828203905092915050565b6000611cc382611ce8565b9050919050565b6000611cd582611ce8565b9050919050565b60008115159050919050565b600073ffffffffffffffffffffffffffffffffffffffff82169050919050565b6000819050919050565b82818337600083830152505050565b60005b83811015611d3f578082015181840152602081019050611d24565b83811115611d4e576000848401525b50505050565b60006002820490506001821680611d6c57607f821691505b60208210811415611d8057611d7f611e2f565b5b50919050565b611d8f82611e8d565b810181811067ffffffffffffffff82111715611dae57611dad611e5e565b5b80604052505050565b6000611dc282611d08565b91507fffffffffffffffffffffffffffffffffffffffffffffffffffffffffffffffff821415611df557611df4611e00565b5b600182019050919050565b7f4e487b7100000000000000000000000000000000000000000000000000000000600052601160045260246000fd5b7f4e487b7100000000000000000000000000000000000000000000000000000000600052602260045260246000fd5b7f4e487b7100000000000000000000000000000000000000000000000000000000600052604160045260246000fd5b6000601f19601f8301169050919050565b7f506c656173652053656c656374206c657373207175616e746974790000000000600082015250565b611ed081611cdc565b8114611edb57600080fd5b50565b611ee781611d08565b8114611ef257600080fd5b5056fea264697066735822122021c8c167d12c3713ed2276291bfb04f5d8f3bba30dbe76ec507bab87004879d164736f6c63430008040033",
  "immutableReferences": {},
  "source": "pragma solidity ^0.8.4;\n\ncontract Marketplace {  \n    uint public productcount = 0;\n    uint public usercount = 0;\n    uint public receiptcount = 0;\n    mapping(uint => Product) public products;\n    mapping(uint => User)public user;\n    mapping(uint => Receipt)public receipts;\n\n    struct User {\n        uint id;\n        string name;\n        string email;\n        string hash;\n        string location;\n        bool artist;\n        address  user;\n        uint coins;\n    }\n\n    struct Product{\n        uint Id;\n        string name;\n        string sellername;\n        uint quantity;\n        uint price;\n        address payable owner;\n        string hash;\n    }\n\n    struct Receipt{\n        uint idx;\n        string sellername;\n        address payable owner;\n        uint quantity;\n        string hash;\n    }\n\n    function createUser(string memory _name , string memory _email , string memory _hash , bool _artist,string memory _location) public{\n        usercount++;\n        user[usercount] = User(usercount,_name,_email,_hash , _location  ,_artist,msg.sender,0);\n    }\n    function createProduct(string memory _name , string memory _sellername , uint _quantity,uint _price,string memory _hash) public{\n        productcount++;\n        products[productcount] = Product(productcount,_name,_sellername,_quantity,_price,payable(msg.sender),_hash);\n    }\n\n    function buy(uint _id, uint _quantity) payable public {\n       \n        Product memory _product = products[_id];\n        require(_product.quantity > _quantity , \"Please Select less quantity\");\n        address payable _owner = _product.owner;\n        \n            _owner.transfer(_product.price);\n            _product.quantity = _product.quantity - _quantity;\n            products[_id] = _product;\n            receiptcount++;\n            receipts[receiptcount] = Receipt(receiptcount,_product.sellername,payable(msg.sender),_quantity,_product.hash);\n            uint _i = 1;\n            for (_i = 1; _i <= usercount;_i++){\n                if(user[_i].user == msg.sender){\n                    user[_i].coins = user[_i].coins + 10;\n                }\n            }\n            \n        \n    }\n\n    function buyMM(uint _id, uint _quantity) payable public {\n       \n        Product memory _product = products[_id];\n        require(_product.quantity > _quantity , \"Please Select less quantity\"); \n            uint _i = 1;\n            for (_i = 1; _i <= usercount;_i++){\n                if(user[_i].user == msg.sender){\n                    user[_i].coins = user[_i].coins - 10;\n                     _product.quantity = _product.quantity - _quantity;\n                     products[_id] = _product;\n                     receiptcount++;\n                    receipts[receiptcount] = Receipt(receiptcount,_product.sellername,payable(msg.sender),_quantity,_product.hash);\n                   \n                }\n            }\n            \n        \n    }\n\n\n\n\n    // function buy(address payable seller , uint price , bool favourite) payable public {\n    //     if (favourite){\n    //         seller.transfer( (90*price)%100  );\n    //     }else{\n    //         seller.transfer(price);\n    //     }\n    // }\n\n\n\n    \n}",
  "sourcePath": "/Users/preritrawtani/Desktop/blockchain/starter_kit/src/contracts/Marketplace.sol",
  "compiler": {
    "name": "solc",
    "version": "0.8.4+commit.c7e474f2.Emscripten.clang"
  },
  "schemaVersion": "3.4.0",
  "updatedAt": "2022-01-22T09:50:12.948Z",
  "networkType": "ethereum",
  "devdoc": {
    "kind": "dev",
    "methods": {},
    "version": 1
  },
  "userdoc": {
    "kind": "user",
    "methods": {},
    "version": 1
  }
}